:020000040800F2
:1000000070180020A5DA000835DC000839DC00088B
:100010003DDC000841DC000845DC00080000000071
:1000200000000000000000000000000049DC0008A3
:100030004DDC00080000000051DC000899A4000815
:10004000318E00087565000861DC00083FA20008D9
:1000500069DC000895990008176F0008316F0008E7
:100060004B6F0008656F00087F6F000885DC000893
:1000700089DC00088DDC000891DC000895DC0008B4
:1000800099DC00089DDC0008A1DC0008A5DC000864
:10009000A9DC0008ADDC0008B1DC0008996F00089D
:1000A000B9DC0008C35F00085B98000833D900087A
:1000B000F3980008CDDC0008D1DC0008D5DC00088E
:1000C000D9DC0008DDDC0008E1DC0008E5DC000824
:1000D000E9DC00089FB70008F1DC0008F5DC000847
:1000E000457000087FA2000801DD000805DD00085A
:1000F00009DD000810F007007047C0F3C100C0B26E
:100100007047C0F34110C0B270474FF69F72104065
:10011000C9B250EA411080B27047C0F3C01080B23B
:1001200070474FF67F72104050EAC11080B270479E
:1001300080B2000A80B27047DFF8CC1BC0B2401812
:10014000407880B2704780B5C0B2FFF7F5FF01215B
:1001500080B2FFF7E6FF02BDDFF8AC1BC0B2415C26
:10016000FF2900D0401EC0B27047DFF89C1BC0B210
:1001700040184078FF2801D0012000E00020C0B2E4
:10018000704710B50C0002E0C0B2FFF7E5FF210098
:100190004C1EC9B20029F7D1C0B210BD0178407819
:1001A00051EA002080B270470178427851EA02217A
:1001B000827851EA0241C07851EA00607047C17804
:1001C000827851EA0221427851EA0241007851EAEC
:1001D00000607047017089B2090A41707047017070
:1001E0000A0A42700A0C8270090EC1707047C17011
:1001F0000A0A82700A0C4270090E01707047FF20D3
:1002000070472DE9F04104000D0017001E00102179
:100210000022DFF8F88A404603F06AF94920DFF847
:10022000EC1A0870002F04D00120DFF8E01A4871A2
:1002300003E00020DFF8D41A4871DFF8D00AC67353
:100240002100DFF8CC0AFFF7CAFF2900DFF86C0DA8
:10025000FFF7C5FFBDE8F08170B50400080011008C
:100260001A00059D2B00FFF7CCFF1022DFF8506D20
:100270002100300003F086F9049C2A0092B221008C
:10028000022003F02DFA06002819FFF798FF864296
:1002900001D1012000E00020C0B270BD70B50400A3
:1002A000080011001A00059D2B00FFF7AAFF10227D
:1002B000DFF80C6D2100300003F064F9049C2A0083
:1002C00092B22100022003F00BFA01002819FFF777
:1002D0008EFF70BD38B504000D00DFF8E40C04F0AB
:1002E0005EFD2A0092B221000A2003F0F9F9010014
:1002F0002819FFF77CFF31BD70B504000D00DFF851
:10030000C00C04F04CFD2A0092B221000A2003F038
:10031000E7F906002819FFF752FF864201D10120B4
:1003200000E00020C0B270BD38B504000D00DFF859
:10033000900C04F034FD2A0092B22100002003F05A
:10034000CFF931BD2DE9F84304000E00170098469F
:10035000099D012D33DB10210022DFF8B0994846BA
:1003600003F0C6F80120DFF8A419C873DFF89C0970
:10037000C07BDFF898190870B8F1000F04D0012095
:10038000DFF88819487103E00020DFF88019487110
:100390003100DFF87C09FFF722FF3900DFF81C0C81
:1003A000FFF71DFF1022DFF8186C2100300003F06A
:1003B000E9F82A0092B20899042003F091F9BDE807
:1003C000F1832DE9F04106000F0014001D001021FB
:1003D0000022200003F08CF801202070062214F186
:1003E00001083900404603F0CDF8310089B2E01D24
:1003F000FFF7F0FE10222100280003F0C3F80220CE
:100400002870DFF8BC0B04F0CAFC10222100002089
:1004100003F066F9DFF8A80B04F0C1FC10222900F4
:10042000002003F05DF9BDE8F081DFF8940C90F84E
:10043000AD03052801D1022000E001207047DFF85C
:10044000800C90F8A603012801D1012000E00020D3
:100450007047002100E0491CC9B2102915DADFF805
:10046000602CB2F8EC2001238B401A42F3D0012219
:100470008240521EDFF8483CC9B213EB4103B3F887
:10048000CC301A42E7D0002000E001207047DFF8AE
:10049000302CB2F8EC2001238B401A420CD0DFF84C
:1004A000202CC9B212EB4101B1F8CC100A00024174
:1004B000D00701D5012000E00020704770B504008E
:1004C0000D00002600E0761CF6B2102E15DADFF8DB
:1004D000F00BF6B210EB860090F88C0010F00300E1
:1004E000EDB2A842EFD13100C9B22000C0B2FFF78F
:1004F000CEFF0028E7D0012000E0002070BD70B5DD
:1005000004000D00002600E0761CF6B2102E0FDA73
:100510000120B040290089B20142F5D03100C9B2B2
:100520002000C0B2FFF7B3FF0028EDD0012000E0AB
:10053000002070BD38B50400200080B2FFF7DAFD5E
:100540000500200080B2FFF7D8FDDFF8801CEDB277
:10055000032202FB0511405C8D3832BD2DE9F047C6
:1005600004008846200080B2FFF7C7FD0500200088
:1005700080B2FFF7BFFD0600F6B2002E0BD15FFA86
:1005800088F818F10B005FF4802148434CF2503199
:1005900090FBF1F05BE0B01DC0B28700F6B2052E13
:1005A00001DB082000E00020B7EB0009200080B24A
:1005B000FFF7B3FD002802D05FF0000A01E05FF012
:1005C000100A200080B2FFF7B3FD002801D01420EC
:1005D00000E000205FFA88F8FFB2D7EBC8011AEB01
:1005E00001011C31B1EB0008B8F1010F12DB5FFA19
:1005F00089F919EB0800401E5FFA89F990FBF9F8B8
:10060000200080B2FFF77DFD401D00FB08F818F1C7
:10061000080801E05FF008085FEA880010F131087F
:10062000701C471B43F60951FFB2052F04DB3A1F2C
:10063000080001001141042718FA07F04FF40042A6
:10064000022391FBF3F302FB003090FBF1F0BDE8D5
:10065000F08738B5040005F0A4F90500EDB205F007
:10066000A0F950EA052189B20800B0F5004F06DD77
:1006700089B24FF4004291FBF2F000FB1210E4B299
:10068000002C09D0C9B2E4B291FBF4F204FB1211C0
:100690004FF4004202FB010032BD70B504000C199A
:1006A000002514E0307B002810D1B068A0420DDA9C
:1006B00016F1100005F072FAB46000203073DFF814
:1006C000102BB16816F1100005F094FA6D1CEDB214
:1006D000032D1CDADFF8E809EDB2242101FB050047
:1006E00010F1200696F820000028EFD0308800286E
:1006F00002D0307B0028D5D0B46000203073DFF802
:10070000D02AB16816F1100005F074FADEE770BD6A
:10071000DFF8AC0980F8FC10704752B212F1800F7C
:1007200003D0DFF89C0980F8FB20DFF8940990F8EB
:10073000FC00C9B288420DD0DFF8840980F8FC10B3
:10074000DFF87C09B0F8F80050F40060DFF87019A9
:10075000A1F8F8007FF03F00DFF8641981F8AD01DF
:10076000704738B5040040210022DFF8685A28009D
:1007700002F0BEFE20210022DFF85C5A280002F0C1
:10078000B7FE6C210022DFF8545A280002F0B0FEB8
:100790000020DFF82C1981F881020020DFF82019F1
:1007A00081F88802DFF8382A2100C9B2DFF8100981
:1007B00090F8AD0302F064FDDFF8240A0078DFF85A
:1007C000001981F8AE03002413E05FF0FF33DFF877
:1007D000100AE4B210EB4400B0F84420DFF8000A3D
:1007E000E4B210EB840041682000C0B200F002F9CE
:1007F000641CDFF8EC090078E4B28442E5D3DFF84A
:10080000E00990F86400DFF8B81881F8B601DFF865
:10081000D009806EDFF8A818C1F8B8014FF47A70DB
:10082000DFF89C1808840E20DFF8941881F8230064
:100830000E20DFF88C1881F8220005F0B2F81021A4
:1008400090FBF1F202FB1102DFF8740880F824201B
:100850006420DFF86C18A1F844000E20DFF860185F
:1008600081F847000E20DFF8581881F8460005F09F
:1008700098F8102190FBF1F202FB1102DFF840081A
:1008800080F848200A20DFF83818A1F868000E2008
:10089000DFF82C1881F86B001420DFF8241881F899
:1008A0006A0005F07EF8102190FBF1F202FB1102C4
:1008B000DFF80C0880F8482005F05EF9DFF8001832
:1008C0000867DFF8FC17C864DFF8F41788620020B7
:1008D000DFF8EC1781F83C000120DFF8E41781F81D
:1008E00060000220DFF8D81781F8840031BD10B510
:1008F000C0B2042801DB002015E0DFF8C437C0B225
:10090000242404FB00302030C170028092B2002AFF
:1009100008D190F82010002904D001210173103073
:1009200005F03CF9012010BD10B5DFF89417C0B2F6
:1009300011EB800090F88C0010F00304DFF88007C2
:10094000E4B2242101FB040090F84000002811D1FA
:100950000120DFF86C17E4B2242202FB041181F8B5
:100960002C0005F009F9DFF85817E4B2242202FB45
:1009700004118862DFF84807E4B2242101FB040077
:1009800090F84000401CDFF83817E4B2242202FB44
:10099000041181F8400010BDDFF82417C0B211EB3C
:1009A000800090F88C0010F00300DFF81417C0B23C
:1009B000242202FB001191F84010491EDFF80027A5
:1009C000C0B2242303FB002282F84010DFF8F016A7
:1009D000C0B2242202FB001191F84010002908D176
:1009E0000021DFF8DC26C0B2242303FB002080F8BE
:1009F0002C10704770B504000E0015001800E4B20A
:100A0000102C01DB002040E040B210F1010F20D19A
:100A1000300002F015FCB108890040B250EA01062E
:100A2000DFF89C06E4B210EB8400D0F88C000028BC
:100A300003D02000C0B200F029F8DFF88406E4B249
:100A400010EB8400C0F88C60ADB2002D06D13F25BC
:100A500004E040B20428DEDB002016E0DFF8600688
:100A6000E4B210EB4400A0F8CC50DFF85406B0F824
:100A7000EC000121A1400843DFF84416A1F8EC0086
:100A80002000C0B2FFF750FF012070BD10B5040078
:100A9000DFF82C06E4B210EB8400D0F88C000028BC
:100AA00026D0DFF81C06B0F8EC000121A140084276
:100AB00003D02000C0B2FFF76FFF0020DFF8001660
:100AC000E4B211EB8401C1F88C000020DFF8F015CE
:100AD000E4B211EB4401A1F8CC00DFF8E405B0F872
:100AE000EC000121A1408843DFF8D415A1F8EC0007
:100AF00010BD10B5401EFFF757FB000A642101FB33
:100B000000F4FFF792FCC0B2012802D0022809D0FD
:100B100010E0DFF8BC0C201ADFF8B81C884200D3C4
:100B2000002407E0DFF8B00C201ADFF8B01C884280
:100B300000D30024200010BD38B50400002504E0D7
:100B40002800C0B2FFF728FF6D1CEDB2102D19DA96
:100B5000A4B20120A8402040DFF8841CB1F8EC10BA
:100B60000122AA4011408842EED0DFF8740CB0F8A0
:100B7000EC000121A9400842E2D02800C0B2FFF7F2
:100B8000D3FEE1E731BD38B50D00DFF8541CB1F8F4
:100B9000EC40C0B260281FD1002014E0DFF8401CF8
:100BA000C0B211EB8001D1F88C1000290AD0DFF817
:100BB000301CB1F8EC10012282401143DFF8202CE8
:100BC000A2F8EC10401CC0B21028E7DB200080B275
:100BD000FFF7B2FF012031E0C0B2002802D1ADB270
:100BE000002D01D1002029E0002000E0401CC0B20F
:100BF000102810DA012181402B009BB20B42F5D066
:100C0000DFF8DC1BC0B211EB8001D1F88C10002999
:100C1000ECD1002012E0290089B21000C0B2FFF729
:100C20006EFC002801D1022008E0DFF8B40BA0F828
:100C3000EC50200080B2FFF77FFF012032BDDFF8CB
:100C4000A01B007B242202FB001020300121017335
:100C50007047F8B50400DFF86804DFF8641491F811
:100C6000EE1010EB8100D0F88C50DFF8540490F8AF
:100C7000D311DFF84C04C089FFF770FC0600DFF8E1
:100C8000400415F00301242202FB010010F12007AB
:100C9000A8088000DFF82814886097F9020097F907
:100CA0000310884204DAB878DFF81414887403E07B
:100CB000F878DFF80C148874388800FB0640B860B8
:100CC0003888002809D000203873DFF80425B96877
:100CD00017F1100004F08EFF04E00120387304F0D7
:100CE0004BFFB860DFF8D80390F8EF0000280AD077
:100CF000DFF8CC0390F9EF0016FA00F00019DFF8E6
:100D0000C013C1F8F000F1BD04DC0008800F002022
:100D1000860F00202DE9FF4704000D000F26FF2756
:100D2000DFF8C00A10EB04085FF0000923E0DFF8E9
:100D300090035FFA89F9242101FB090090F82C0047
:100D4000002816D0DFF89C0A0019804511D14946C9
:100D5000C9B2DFF86C0390F8FC00FFF7AFFB002886
:100D600007D04F46D648FFB2242101FB0700D0F838
:100D7000288019F101095FFA89F9B9F1030F2DDA19
:100D8000012010FA09F03100C9B20142CFD0CC489D
:100D90005FFA89F9242101FB0900806AB8EB0000A1
:100DA0000128C4DBC6485FFA89F9242101FB090048
:100DB00090F82C000028DCD04946C9B2C04890F811
:100DC000FC00FFF77BFB0028D3D04F46BC48FFB2A6
:100DD000242101FB0700D0F82880CAE7B8EB040003
:100DE000DFF8001A884252D1B548B54991F8EE10A3
:100DF00010EB810090F88C0010F0030010F1010955
:100E00005FFA89F9B9F1030F01D15FF000095FF0D2
:100E1000000A37E0012010FA09F13000C0B20842A0
:100E200025D0A7485FFA89F9242101FB0900806ACF
:100E3000B8EB000001281ADBA1485FFA89F92421E8
:100E400001FB090090F84000002810D04946C9B2C3
:100E50009B4890F8FC00FFF731FB002807D04F4675
:100E60009748FFB2242101FB0700D0F8288019F130
:100E700001095FFA89F9B9F1030F01D15FF00009A7
:100E80001AF1010A5FFA8AFABAF1030FC2DBB8EB72
:100E90000400DFF85019884201D140468AE0002062
:100EA000002116E0FFB2864AC9B212EB810292F825
:100EB0008C2012F0030297420AD1814AB2F8EC204A
:100EC00001238B401A4203D000AAC0B28154401CB7
:100ED000491CC9B21029E5DB04F063FD7849FFB273
:100EE000242202FB071191F8401090FBF1F201FB64
:100EF0001201002013E0491C714AFFB2242303FBB6
:100F0000072292F84020C9B2914207D36C4AFFB23F
:100F1000242303FB072292F84020891A401C684AC8
:100F2000FFB2242303FB072292F84020C0B2904274
:100F30003DD200AAC9B28B5C614AB2F8EC2001260E
:100F40009E403242D7D05E4ADBB212EB4302B2F887
:100F5000CC205B4E96F8FC6016F00F0694461FFA04
:100F60008CFC3CFA06FC5FEACC72C4D5FFB2544A52
:100F7000DBB212EB830292F88C2012F0030297424C
:100F8000B9D1EDB2002D10D14D48FFB2242101FBA3
:100F9000070080F824304A48FFB2242101FB0700F3
:100FA00090F82400464981F8EE00404602E0DFF860
:100FB0003408001904B0BDE8F08700008A0F002053
:100FC000380B002080B50E20DFF8141881F8FB00E4
:100FD00005210020FFF79CFB0120FFF7C2FB04F076
:100FE000E0FCDFF8FC1791F8AE1390FBF1F201FB87
:100FF0001200DFF8EC1781F8EE00DFF8E407B0F834
:10100000F800000501D504F0D6FF04F0B5FDDFF8C7
:10101000D017086001BD38B5002404F0ADFD0021F3
:10102000FFF778FE2648B0F8F8004FF2FF7108404D
:101030002349A1F8F80004F09FFD0500204820494D
:1010400091F8EE1010EB8100D0F88C001C4910F0E4
:101050000300242202FB001020308168691A002955
:1010600000D58568FF21164890F9FC200800104142
:10107000C0B2FFF7EEFA401910F5004010490860C1
:101080000F4890F8D001401C0D4981F8D0010C4860
:1010900090F8D001C00710D4094890F8FC0000284F
:1010A00001D1012409E0064890F8FC00FFF754F84C
:1010B0000100C9B20120FFF72BFBE4B2200032BDD2
:1010C0001805002080B501F069FD01BD80B5C0B2F2
:1010D00003F069FE01F062FD01BD80B50020DFF87C
:1010E0000017C1F8A801DFF8F806D0F8A801DFF86A
:1010F000F016C1F8A4010020DFF8E41681F8FE0024
:101100000020DFF8DC1681F890020020DFF8D0160E
:1011100081F8B101DFF8C81681F8B001DFF8C01618
:1011200081F8AE01DFF8B81681F8AC010020DFF8D5
:10113000B01681F8B401DFF8A81681F8B501DFF820
:10114000A01681F8BC01DFF8981681F8B3010020E1
:10115000DFF88C1681F89302DFF8840690F893028A
:10116000DFF87C1681F891020020DFF8741681F810
:10117000BF010020DFF8681681F8FA007FF03F0019
:10118000DFF85C1681F8AD010520DFF8541681F810
:101190005402DFF8480CDFF84816C1F8CC010320F0
:1011A000DFF83C1681F8C0010120DFF8341681F821
:1011B000A603DFF82C0690F91220DFF8240690F839
:1011C00092120020FFF7A9FA01BD0000DCDB000845
:1011D0003F0C0008A4050020E4050020380500208D
:1011E000840D0020C0B2062801DA012000E00020B2
:1011F0007047C0B2062801DA012000E000207047E5
:101200002DE9F84F04000D00DFF8D40590F8D9015E
:10121000C0F3401010F00100002806D1DFF8C0052F
:1012200090F80701012800F0D0820020DFF8B01507
:1012300081F8A402002600E0F61CAE4280F2C582CE
:10124000305D0228F8D0C0F0C082042800F0CD81C3
:101250000AD3062800F0DF80C0F02081082800F0C3
:101260008482C0F0E381B0E2301990F801B0301907
:10127000801CFEF793FF07003019007910F0F0088A
:101280003019007910F00F09761DDFF8540590F839
:10129000B201802840F08E808720DFF8441581F865
:1012A000B0015FFA8BFB5FEA1B1A5046C0B2FEF733
:1012B0005CFF00280AD1DFF8280590F8B00110F093
:1012C000FD00DFF81C1581F8B00178E01BF00F0B72
:1012D0005846C0B2FFF786FF00280AD1DFF80005A4
:1012E00090F8B00110F0FB00DFF8F41481F8B001C1
:1012F00065E05246D2B2390089B24046C0B2FFF72B
:1013000042FCC0B200280AD1DFF8D40490F8B00142
:1013100010F0FE00DFF8C81481F8B0010CE0C0B294
:10132000022809D1DFF8B80490F8B00110F0FD00F0
:10133000DFF8AC1481F8B001DFF8A40490F8B00134
:1013400010F07F0007283AD1DFF8940480F8FA9073
:10135000DFF8480D5FFA8BFB1BF00F010A56514670
:10136000C9B20420FFF7D9F90020C0B2102826DA4C
:10137000DFF86C14B1F8EC1001228240114217D052
:10138000DFF85C14C0B211EB800191F88C1011F001
:101390000301DFF8082D5FFA8BFB1BF00F039A5C4B
:1013A000DFF83C34C9B2242707FB013181F8232040
:1013B000401CDAE78020DFF8281481F8B001032010
:1013C000DFF81C14DFF8182492F8A422511881F8D1
:1013D000A502DFF80C0490F8A402401CDFF800140A
:1013E00081F8A402DFF8F80390F8B00110F00700CC
:1013F000DFF8EC13DFF8E82392F8A422511881F803
:10140000A502DFF8DC0390F8A402401CDFF8D0133B
:1014100081F8A40211E70120DFF8C41381F8B101BB
:101420000620DFF8BC13DFF8B82392F8A422511885
:1014300081F8A502DFF8A80390F8A402401CDFF8A9
:10144000A01381F8A402DFF8980390F8A472781C26
:10145000DFF88C1381F8A402FEF7D1FEDFF88013C9
:10146000FFB2791881F8A502DFF8740390F8AF0194
:1014700010F03F00DFF86813DFF8642392F8A4222D
:10148000511881F8A502DFF8580390F8A402401C17
:10149000DFF84C1381F8A402761CCEE630194078B0
:1014A00010F00F0730194078C0F302183019801C73
:1014B000FFF71FFB8146761D8020C94981F8BC01DA
:1014C0003800C0B2FEF751FE002808D0C44890F89A
:1014D000BC0150F00200C24981F8BC0107E0C048DD
:1014E00090F8BC0110F0FD00BD4981F8BC014046F8
:1014F000C0B2FFF77EFE002808D0B94890F8BC01C2
:1015000050F00400B64981F8BC0107E0B44890F8F7
:10151000BC0110F0FB00B24981F8BC01B9F1000F29
:1015200008D0AF4890F8BC0150F00100AC4981F8F8
:10153000BC0107E0AA4890F8BC0110F0FE00A849E1
:1015400081F8BC01A64890F8BC01872808D1A448BE
:1015500080F88182A24880F8B671A148C0F8B8919D
:1015600005209F499E4A92F8A422511881F8A502AD
:101570009B4890F8A402401C994981F8A40298481D
:1015800090F8BC0110F007009549954A92F8A42202
:10159000511881F8A502924890F8A402401C904985
:1015A00081F8A40205208E498D4A92F8252351180E
:1015B00081F826038A4890F82503401C884981F861
:1015C0002503874890F8BC0110F007008449844A3D
:1015D00092F82523511881F82603814890F82503B5
:1015E000401C7F4981F8250327E630194078B61C56
:1015F00010F00F007A4981F8EF0004F0BDFA784945
:10160000C1F8F0000120764981F8B4010420744942
:10161000734A92F8A422511881F8A502704890F8F4
:10162000A402401C6E4981F8A40206E630194778EE
:101630003019801CFFF75DFA8046301990F805904C
:101640008020674981F8B501654890F8AE03401ED7
:10165000FFB2B8425DDAB8F1000F0CD13800C0B269
:10166000FFF714FA5E4890F8B50150F003005C49AA
:1016700081F8B50155E019F00F0019F0F00AC0B279
:10168000FEF773FD00280ED05046C0B2FEF76DFD88
:10169000002808D0524890F8B50150F00200504997
:1016A00081F8B50107E04E4890F8B50110F0FD0053
:1016B0004B4981F8B5015FF0FF334FF6FF7019F029
:1016C0000F0188404FF6FF715FFA89F95FEA19123E
:1016D000D2F10F028C465CFA02FC1CEA000292B2C4
:1016E00041463800C0B2FFF785F9002808D03C48D1
:1016F00090F8B50150F00100394981F8B50110E0CA
:10170000374890F8B50110F0FE00354981F8B50171
:1017100007E0334890F8B50110F0FE00304981F839
:10172000B501B61D07202E492D4A92F8A422511862
:1017300081F8A5022A4890F8A402401C284981F8A3
:10174000A402274890F8B50110F003002449244A68
:1017500092F8A422511881F8A502214890F8A40219
:10176000401C1F4981F8A40267E53019407810F049
:101770000F00C0B2002800D10120401E184981F896
:1017800088020120164981F89102B61C08201449EC
:10179000134A92F8A422511881F8A502104890F833
:1017A000A402401C0E4981F8A40208200C490C4AEE
:1017B00092F82523511881F82603094890F825034B
:1017C000401C074981F8250337E5BDE8F18F00008B
:1017D000C0557033C1CF6A00806DC33581BA8C01AA
:1017E00018050020000050462DE9FE4FDFF8E46B9D
:1017F000307810F0E005DFF8E01B91F8D391B9F1F3
:101800000C0F08DB0321084205D1EDB2602D09D091
:10181000EDB2A02D06D00020DFF8BC1B81F8D3016B
:101820000020A7E196F805B0701CFEF7BDFC8246CB
:10183000B01DFEF7B3FC07001BF00F04CBF3401004
:1018400010F00100029014F10808B9F104091BF02E
:101850001000DFF8841B81F89002DFF87C0BD0F8D1
:10186000A0018245D7D1C145D5DB5FF0FF3AC8451D
:1018700003DA18F806A018F10108CDF804900096D4
:1018800001233A00DFF8500BD0F8A011DFF84C0B21
:10189000FEF7E2FC002803D1142003F084FABAE733
:1018A000DFF8340BD0F8A401874215D2DFF8280BFB
:1018B000D0F8A401401E874202D1EDB2A02D24D061
:1018C0004FF6FF70DFF8101BD1F8A411401A38183A
:1018D000B0F5804F19D99EE7DFF8FC0AD0F8A401D3
:1018E000381AB0F5804F96D8781CDFF8EC1AC1F89A
:1018F000A401DFF8E40AD0F8A401B0F5803F04D3D6
:101900000020DFF8D41AC1F8A401EDB2A02D05D152
:101910002020DFF8C41A81F8AC0104E00020DFF8D1
:10192000B81A81F8AC01DFF8B00A90F8AC010028D1
:1019300002D15FEACB601AD5DFF89C0AB0F8F80054
:1019400050F01000DFF8901AA1F8F800DFF8880ACC
:1019500090F8800202280AD1DFF87C0AB0F8F8007B
:101960004FF6FE710840DFF8701AA1F8F800002069
:10197000DFF8641A81F8FE00DFF85C0A90F8FE00D8
:10198000DFF8541A81F8AE01DFF84C0A90F9AD0186
:1019900010F1800F05D07FF03F00DFF83C1A81F88E
:1019A000AD01DFF8340A90F90C00B0F14005DFF822
:1019B000280AC089FEF7BEFD281A10F1200F05DAAB
:1019C000E020DFF8141A81F8AF010BE0202805DBD6
:1019D0001F20DFF8041A81F8AF0103E0DFF8F819DF
:1019E00081F8AF0116F10805BAF1000F19D4B9EB6F
:1019F0000800012815DBBAF1010F02DADFF8DC0973
:101A000001E0DFF8C80CB9EB0801019118EB060101
:101A1000009101233A00DFF8C019D1F8A011FEF7B8
:101A200091FC0020DFF8B01981F82503BAF1000F0E
:101A30000DD1B9EB0800012809DB012CBFF6EBAE94
:101A400018EB0600B9EB0801FFF7DAFB0EE0DFF850
:101A5000880980F8944222002900DFF8286C3000C1
:101A600001F090FD21002800FFF7CAFBDFF86809AC
:101A700090F8A40210281ADBDFF85C09B0F8F8002F
:101A800050F01000DFF85019A1F8F800DFF848090D
:101A900090F8800202280AD1DFF83C09B0F8F8007B
:101AA0004FF6FE710840DFF83019A1F8F800DFF8B2
:101AB000280990F80701012821D10298002801D0B7
:101AC000802000E04020DFF8101991F8D111084380
:101AD000DFF8041981F8D101029800281ED00020F7
:101AE000DFF8F41881F8D0010020DFF8EC1881F855
:101AF00007010020DFF8E01881F808010EE000205F
:101B0000DFF8D41881F8D0010020DFF8CC1881F874
:101B100007010020DFF8C01881F80801BAF1000FB2
:101B200013D5DFF8B40890F8D10150F02000DFF8A9
:101B3000A81881F8D101DFF8A00880F8D281002030
:101B4000DFF8941881F8D30113E0DFF88C0890F8DF
:101B5000D10150F01000DFF8801881F8D101DFF8D2
:101B6000780880F8D281B9EB0800DFF86C1881F8AA
:101B7000D3010120BDE8FE8F80B50220DFF85818A0
:101B800081F8D101DFF8500890F8B601FEF7DBFAD2
:101B9000DFF84418C881DFF84008D0F8B801DFF852
:101BA000381888600020DFF8301881F8D301DFF89A
:101BB000280890F88002022813D1DFF81C0890F85A
:101BC000F800C0070DD5DFF8100890F8D10150F0EB
:101BD0000800DFF8041881F8D101032003F0A0FF0A
:101BE00002E0022003F09CFF01BDDFF8EC27126841
:101BF0008218103ADFF8E0375A60C9B2072904D1D9
:101C00001420DFF8D417087421E0C9B2022904DADD
:101C10000620DFF8C417087419E0C9B2062912D1EA
:101C2000DFF8B42712688018DFF82C2BC9B252F8FD
:101C30002110B0EB4100DFF8A01748601020DFF85A
:101C40009817087403E00820DFF88C1708747047B1
:101C500010B50C00DFF8801791F8B611FFF7C5FF3B
:101C6000DFF8740790F8800202280AD12200DFF81A
:101C700068074068B0F14101DFF8E00A03F0BAFFFD
:101C800009E02200DFF850074068B0F14101DFF8B9
:101C9000D00A03F0AFFF10BD10B504000120DFF83B
:101CA000381781F8D101DFF8300790F88202FEF78B
:101CB0004AFADFF82417C8810121DFF81C07C08920
:101CC000FEF72FFADFF81017C881DFF80C07D0F8FD
:101CD0008402DFF8041788600121DFF8FC06C08960
:101CE000FEF71FFADFF8F016C8810020DFF8E816CB
:101CF00081F8D301DFF8E006C0F88C42DFF8D8069F
:101D000090F8800202280AD1DFF8CC06B0F8F8007B
:101D10004FF6FE710840DFF8C016A1F8F800022067
:101D200003F0FEFE10BD10B50C00DFF8AC16497CC8
:101D3000DFF8A42692F88122891ADFF89C2682F81F
:101D40008212DFF8941691F88212082904DB002130
:101D5000DFF8842682F88212DFF87C168968DFF8C3
:101D60007826C2F88412DFF87016497CFFF73DFF31
:101D70002200DFF864064068B0F14101DFF8E009B5
:101D800003F038FF10BDDFF85006007B4C38DFF859
:101D900048160873DFF84006407B000614D5DFF8CC
:101DA000380690F90D00C043401C801010F03F0031
:101DB000DFF824164873DFF8200690F90D00404242
:101DC000DFF81416487308E0DFF80C0690F90D00F0
:101DD000C0F38500DFF800164873704708E6D33378
:101DE00080B50820FFF772F901F024F801BD70B545
:101DF000DFF8700990F8D101012807D1DFF86409F4
:101E000090F8D301002801D104F0D5F8DFF8540987
:101E100090F8F800000601D404F0CDF8DFF844098A
:101E200090F8D30100284BD1DFF8380990F8F8007A
:101E3000400726D4DFF82C0990F8F800800601D47A
:101E400004F0B9F8DFF81C09B0F8F8004FF65F713C
:101E50000840DFF81019A1F8F800DFF8080990F839
:101E6000FE000A2808DADFF8FC0890F8FE00401CA3
:101E7000DFF8F01881F8FE000920FFF727F90120AC
:101E8000EFE0DFF8E008B0F8F8004FF67F710840A7
:101E9000DFF8D018A1F8F800FFF7BDF80400E0075C
:101EA00002D5DFF8C45801E0DFF8C05803F064FE43
:101EB0002A002118DFF8A80803F09CFE0120D0E0DA
:101EC000DFF8A00890F8D451DFF8980890F8D341D3
:101ED000DFF89008E4B2201810F5E870FEF764F916
:101EE000E4B2112C02D0E4B2212C04D1EDB215F0F1
:101EF000E300202808D0DFF86C0890F8D101C00773
:101F000001D50020ADE08FE7E4B2611EDFF8780C68
:101F1000FEF70AFAE4B2211FDFF8B804FEF7ECF985
:101F20000028E8D0DFF8640CFEF73EF9DFF834183B
:101F3000C1F8A001DFF8580CFEF736F90002000ADC
:101F4000DFF82018C1F8F4000020FEF70AFCDFF8E3
:101F5000140890F8DF0110F00F05DFF8080890F87A
:101F6000DF01C0F302162800C0B2FEF7FEF8002819
:101F70000DD03000C0B2FFF73CF9002807D0DFF8E1
:101F8000E40780F88162DFF8DC0780F8B651DFF8FB
:101F9000D40790F8E00110F00F00C0B2002800D183
:101FA0000120401EDFF8BC1781F88802E4B2122C31
:101FB00019DB0D24032513E0DFF8A807E4B220188D
:101FC00010F5EA70FEF795FD002807D05FF0FF33AB
:101FD000002201002800C0B2FEF70CFD6D1CE41CBD
:101FE000EDB2082DE8DBDFF8E436DFF8F023DFF8A8
:101FF000981BDFF87007B0F87C01401E80B2FEF736
:10200000E0F9DFF8600790F8F8002421084201D1D8
:1020100003F0D1FFDFF84C0790F8F80080060DD5EB
:10202000DFF8400790F8FE10DFF8380790F8FC0062
:10203000FEF7A7F8DFF82C1781F8FC00DFF824077B
:10204000B0F8F8004FF659510840DFF81817A1F81A
:10205000F800FFF742F8FFF796FE0620FFF736F884
:10206000012070BD80B5DFF8700390F8D30100281F
:1020700007D10020DFF8601381F8D101102002F0B1
:1020800092FEFFF7B4FE01BD80B5DFF8080BDFF864
:10209000D416C1F88C02FFF76FFD01BD00000020CF
:1020A00080B5CD4890F8D301002803D0FFF79FFEFC
:1020B000002805D1DFF86C1D5FF44030FFF7C8FD44
:1020C00001BD80B5DFF8600DFFF7E6FD01BD80B50D
:1020D000052002F068FEDFF8541D5FF42030FFF7A2
:1020E00022FE01BD80B5DFF8740603F057FD002025
:1020F000B949C1F88C020020B74981F8D30100F03A
:1021000037FB102002F04FFEB34890F880020228FF
:1021100006D1B14890F8F800C00701D500F038F9B1
:1021200001BD80B5AC4890F8D301002818D100203B
:10213000A94981F8D101A84890F88002022808D165
:10214000DFF8541ADFF8140603F03FFD00F020F921
:1021500005E0DFF8441ADFF8080603F036FD5AE020
:102160009D4890F8800202280BD1DFF8F00503F0BB
:1021700015FD9948B0F8F80050F080009649A1F894
:10218000F80000F0F5FA00281DD10020924981F8EE
:10219000D101914890F8800202280DD18E4890F824
:1021A000F800C00705D4DFF8F019DFF8B00503F038
:1021B0000CFD00F0EDF805E0DFF8DC19DFF8A00514
:1021C00003F003FD27E0844890F8D101400615D5BF
:1021D0008148B0F8F80050F080007F49A1F8F8007D
:1021E000DFF8B419DFF8780503F0EFFC7A4890F8CF
:1021F000800202280FD100F0CBF80CE0764890F86E
:102200008002022807D1744890F8F8009021084213
:1022100001D100F0BDF801BD80B5DFF84805B0F888
:10222000F8004FF6FE710840DFF83815A1F8F80005
:10223000DFF8FC0BDFF82C15C1F88C02DFF8240561
:1022400090F88002022802D1002003F069FCFFF719
:1022500093FC01BD80B5002003F062FC042003F074
:102260005FFCDFF83419DFF8F80403F0AEFC01BDC1
:1022700080B5DFF8EC0403F091FC574890F8D301E7
:10228000002803D000F074FA002813D1DFF8801C76
:10229000514890F888024FF40042504310F58030C6
:1022A000FFF7D6FC4C4890F88002022801D100F0DC
:1022B0006FF820E0484890F8D10140060ED5464816
:1022C000B0F8F80050F080004349A1F8F800DFF8BA
:1022D000C818DFF88C0403F078FC0CE03E4890F856
:1022E0008002022807D13C4890F8F800902108426B
:1022F00001D100F04DF801BD10B5374890F88002CB
:10230000022802D1002003F00BFCDFF8740CFFF769
:10231000C3FC0220FEF79DF9DFF8682C2E490968FE
:102320002D4B93F888324FF4004404FB03114018FE
:1023300010F5C031DFF8280403F05CFC10BD80B557
:10234000DFF82004B0F8F80050F08000DFF8141433
:10235000A1F8F8000020DFF80C1481F8D1010A2060
:1023600002F021FDDFF8201CDFF8F80390F8880266
:102370004FF40042504310F50040FFF7D4FCDFF863
:10238000E40390F88002022801D100F001F801BDB9
:1023900080B5FEF754F800281AD0DFF8C80390F88B
:1023A000B601072814D0002003F0BAFBDFF8B4030D
:1023B000B0F8F80050F00100DFF8A813A1F8F80019
:1023C000DFF86C0ADFF89C13C1F88C02FFF7D4FB2E
:1023D00001BD0000EC060020180500209606002034
:1023E000F0B583B0DFF87C0390F8F80010F0180027
:1023F000102801D0012600E00026F6B2002E04D0FD
:10240000DFF8600390F8085100E000250824DFF8A9
:10241000540390F89302002815D00220DFF84413EB
:10242000DFF8402392F8A422511881F8A502DFF8C2
:10243000340390F8A402401CCA4981F8A402002089
:10244000C84981F89302C74890F8A402002836D002
:10245000C44890F8A402102814DAC24890F8A422C4
:10246000DFF83C1CBF48201810F5EA77380001F06F
:1024700089F8BC4890F8A40204190020B94981F8F1
:10248000A40236E00020B74981F80601B54890F86B
:10249000A422DFF80C1CDFF80C5C280001F072F8B5
:1024A000B04890F8A402AF4981F80801AD4890F80F
:1024B00008510020AB4981F8A402012619E0A9487F
:1024C00090F82503002814D0A64890F8250310287A
:1024D0000FDAA44890F82523DFF83C1CA148201807
:1024E00010F5EA77380001F04DF89E4890F8250382
:1024F00004199C4890F8AE0100280CD0994890F936
:10250000AD01002803D50020964981F8AD010020D7
:10251000944981F8AE01F6B2002E02D0EDB2681DEA
:1025200000E004200719FFB2812F01DB0026271DE0
:1025300040208C4981F8D4018A4890F9AD010028E7
:1025400001D4402000E00020864991F8AC11854A72
:1025500092F8B22111430843210008390843814908
:1025600081F8D9017F48D0F8A011DFF81C06FDF7EB
:1025700036FE7C4890F8D001002806D17948D0F882
:10258000A801401C7749C1F8A8017648D0F8A801F5
:10259000411E89B2DFF8340CFDF71CFE714890F83B
:1025A000AC01002812D06F4890F8FA0000280DD036
:1025B0006C4890F8D0016B4991F8FA10491E884296
:1025C00008D10020674981F8AC0103E0002065498B
:1025D00081F8AC01F6B2002E3DD0624890F80701B8
:1025E00000280CD080205F4981F8D4015D4890F824
:1025F000D001002803D101205A4981F8D00159485F
:1026000090F806015749611881F8D401EDB2DFF85E
:10261000941A5448201800F2D5162A00300000F011
:10262000B1FF504890F80601002802D1DFF80C0CE9
:1026300000E02648EDB201954A49611801F2D51132
:10264000009100234749D1F8A8114A1E4549D1F805
:10265000A011FDF777FEFFB2381F0190DFF8140CD0
:10266000009000233F48D0F8A801421E3D48D0F812
:10267000A011DFF8C80BFDF711FE3A4880F8D371BE
:10268000F7BD0000AD07002010B5DFF8E84B207063
:10269000601C02F070FB14F1090002F076FB314877
:1026A000B0F87C1114F11100FDF794FD1321200006
:1026B000FDF710FE17202B4981F8D3012948B0F807
:1026C0007C01401C2749A1F87C0110BDA606002012
:1026D00080B500F063FA01BD80B5FDF7B0FE0028BB
:1026E00037D1204890F8F8009021084201D003F03B
:1026F00062FC00201B4981F8EF000020194981F895
:1027000081020020174981F888021648B0F8F800C5
:102710004EF2DE7108401349A1F8F800002011497B
:1027200081F807010F4981F8D0010E4981F8FE00B8
:10273000FEF748FC0B48B0F8F80050F004000949D7
:10274000A1F8F800DFF8301B054803F03EFA01203D
:1027500000E0002002BD00004CDB00088C070020D8
:102760002C05002018050020E11D0008C5100008F8
:1027700080B5DFF8080B90F8F800000655D5DFF8B3
:10278000FC0A90F8D301002805D0DFF8F00A90F891
:10279000D101400649D5DFF8E40A90F80701002886
:1027A00043D1DFF8D80A90F8D001DFF8D01A91F8B9
:1027B000FA10491E884238DA0020DFF8C01AC1F842
:1027C0008C02DFF8B80A90F8D001401CDFF8AC1A90
:1027D00081F8D0010220FDF73CFFDFF8A01A91F844
:1027E00088124FF4004202FB010010F5C031DFF8FF
:1027F0008C0A0068FDF751FFDFF8800AB0F8F80096
:102800004FF67E710840DFF8741AA1F8F800DFF87F
:102810006C0AB0F8F80050F00800DFF8601AA1F870
:10282000F80000F0BBF9012002BDDFF8500A90F873
:10283000F800000601D403F0BEFBDFF8400A90F870
:10284000D301002806D0DFF8340A90F8D101400601
:1028500040F16D81DFF8240A90F8D001002800F0E3
:102860008780DFF8180A90F80701012840F080807F
:10287000DFF8080A90F8D001DFF8001A91F8AC13DD
:1028800088425FD20020DFF8F419C1F88C02DFF82B
:10289000EC0990F8D001401CDFF8E01981F8D00174
:1028A000DFF8D80990F8D001022190FBF1F202FB89
:1028B0001102012A1BD1DFF8C40990F8D0010228C7
:1028C00015DBDFF8B80990F8FC00FDF7C2FD002821
:1028D0000DD10121DFF8A40990F8FC00FDF751FCAF
:1028E0007FF07F020100C9B20220FDF716FF02202F
:1028F000FDF7AFFEDFF8841991F888124FF400421B
:1029000002FB010010F5C031DFF870090068FDF727
:10291000C4FEDFF86809B0F8F8004FF67E71084091
:10292000DFF85819A1F8F800DFF85009B0F8F800FE
:1029300050F00800DFF84419A1F8F80000F02EF973
:10294000012071E76020DFF8341981F8D101DFF848
:102950002C0990F88002022850D1DFF82009B0F845
:10296000F80050F00100DFF81419A1F8F80045E074
:10297000DFF8080990F8900210282AD10220FDF70C
:1029800068FEDFF8F81891F888124FF4004202FB55
:10299000010010F5C031DFF8E4080068FDF77DFEA6
:1029A000DFF8D808B0F8F8004FF67E710840DFF87D
:1029B000CC18A1F8F800DFF8C408B0F8F80050F01F
:1029C0001000DFF8B818A1F8F80000F0E7F80120CF
:1029D0002AE72020DFF8A41881F8D101DFF89C084D
:1029E00090F88002022809D1DFF89008B0F8F800CA
:1029F00050F00100DFF88418A1F8F800DFF87C0837
:102A000090F9AD0110F1800F08D0DFF8700890F850
:102A1000AD01401CDFF8641881F8AD01DFF85C08F7
:102A200090F8FC00FDF715FD002805D07FF07F0031
:102A3000DFF8481881F8AD01DFF8400890F9AD01E2
:102A400000280AD1DFF83408B0F8F800C00404D434
:102A50000020DFF8281881F8AD010020DFF81C18ED
:102A600081F8A4020020DFF8141881F8D301DFF800
:102A70000C0890F8D301DFF8041881F8D201DFF8D0
:102A8000FC07B0F8F8004FF677710840DFF8EC1754
:102A9000A1F8F800DFF8E40790F8D1010721084217
:102AA00010D0DFF8D807B0F8F800C0040AD5DFF876
:102AB000CC07B0F8F8004EF6FF710840DFF8BC17FD
:102AC000A1F8F80000F06AF8DFF8B00790F9AD015E
:102AD00020282ADBDFF8A40790F8FC00FDF73CFB78
:102AE0007FF07F020100C9B20320FDF716FEDFF878
:102AF0008C0790F8FC00FDF7ACFC002805D1002005
:102B0000DFF8781781F8AD0105E07FF07F00DFF88E
:102B10006C1781F8AD01DFF86407B0F8F80050F4E5
:102B20008050DFF85817A1F8F80001207CE6FEF786
:102B30005BFE002801D1002076E60020DFF83C177C
:102B4000C1F88C02FFF71FF90A2002F02CF996E772
:102B500080B5DFF82807B0F8F8004FF67771084025
:102B6000DFF81817A1F8F800DFF8D00803F016F81E
:102B7000DFF8CC0803F012F8002002F0D1FF11209A
:102B800002F011F901BD0000ED060020F30600205F
:102B9000F006002065200008E5200008F8B5DFF801
:102BA000DC0690F8F800C121084240F0128102F0E2
:102BB000E3FF040000200025DFF8C00690F8F800CD
:102BC0003C21084200F00A81DFF8B00690F8F800D6
:102BD0002421084201D0012600E00026DFF89C06EF
:102BE000B0F8F800000527D500212000FEF792F884
:102BF0000500DFF888060560281BDFF848188842C2
:102C00000ED1DFF87806B0F8F8004FF6E77108400B
:102C1000DFF86816A1F8F800122002F0C4F8D8E036
:102C2000DFF85806B0F8F8004FF2FF710840DFF8FF
:102C30004C16A1F8F80002E0DFF840060568DFF85E
:102C40003C0690F8EF00002805D1DFF83006B0F818
:102C5000F800C0050AD5DFF82406D0F8F000281ADD
:102C6000002803D5DFF81406D0F8F050DFF80C0682
:102C7000DFF8081691F8EE1010EB810090F88C0048
:102C800010F00300291B413900290AD4DFF8EC15A4
:102C9000C0B2242202FB001090F82C00002800F0A3
:102CA00087802500DFF8D40590F8FC70F6B2002E7E
:102CB0001BD0DFF8C80590F8F80080060AD5DFF8C9
:102CC000BC0590F8FE103800C0B2FDF75AFA0700B4
:102CD000C02000E00020C0B2FFF7D6FCDFF8680794
:102CE000DFF89815C1F88C0207E0FFF779FBDFF8F1
:102CF0005C07DFF88815C1F88C023800C0B2FDF718
:102D00001BFADFF8781591F8FD1080B2FDF7FDF998
:102D1000DFF86815C881DFF864054774DFF85C05E3
:102D2000B0F8F8004FF6EF61084050F40860DFF8A3
:102D30004C15A1F8F8002800FDF78BFFDFF83C05E3
:102D400090F88002022802D1002002F0E9FEF6B2DB
:102D5000002E08D0DFF8F82614F5A021DFF8DC06F5
:102D600002F048FF07E0DFF8E82614F58021DFF8DD
:102D7000CC0602F03FFFDFF80405D0F8A8030028D6
:102D800004D0DFF8F804D0F8A8038047012002F04F
:102D9000C7FEDFF8E80490F8D311DFF8E004C0893B
:102DA000FDF7DCFB00192030DFF8D014086010E0DC
:102DB000DFF8C80490F8F80080070BD4132001F066
:102DC000F2FFDFF89026B5F14101DFF8700602F05E
:102DD00011FFF1BD002DF4D16D1CF2E7DFF89C046A
:102DE00090F8F8008007ECD4F3E7C0B2002805D0D3
:102DF0008020DFF8641681F8B20104E00020DFF8DB
:102E0000581681F8B201704780B5DFF84C2682F879
:102E100092020A0052B20100C9B20020FDF77DFC07
:102E200001BD000089200008A1200008C32000087F
:102E30002321000810B5002002F072FEDFF8FC0527
:102E400002F0ACFEDFF8F80502F0A8FE0020DFF883
:102E5000081681F8A6030020DFF8FC1581F8D001E0
:102E60000020DFF8F41581F807010020DFF8E815ED
:102E7000C1F8A00102F095FD0400E4B202F091FD5A
:102E800050EA0420DFF8D015A1F87C010020DFF81B
:102E9000C815A1F8F8000020DFF8BC1581F8FD0086
:102EA000DFF8B805DFF8B015C1F8CC010320DFF872
:102EB000A81581F8C001FF20DFF89C1581F8C10139
:102EC0000020DFF8941581F8A4020020DFF88815AF
:102ED00081F825030020FDF744FC10BD4020DFF8F9
:102EE0007815A1F8F8000120DFF86C1581F8AD0322
:102EF0000020DFF86415A1F8B0030020DFF85815B2
:102F000081F8B2038020DFF8501581F8B2017047D4
:102F10001922000880B5DFF8400590F880020228E9
:102F20000AD1DFF83405B0F8F8004FF67E7108409A
:102F3000DFF82415A1F8F800DFF81C05B0F8F80058
:102F40004FF67F710840DFF81015A1F8F800DFF8A0
:102F50000805B0F8F80050F00800DFF8FC14A1F8FC
:102F6000F800DFF8F40490F8F800400704D40020DB
:102F7000DFF8E41481F8D001FFF710FE01BD000076
:102F80007122000855220008F92200082DE9F041BD
:102F900004000D0016001F00FDF751FA002802D1B1
:102FA0007FF0020036E0DFF8B00490F8FC0007285C
:102FB0000BDADFF8A40490F8A402D0F17300F6B2A3
:102FC000B0420ED27FF0010024E0DFF88C0490F8CC
:102FD000A402D0F13200F6B2B04202DA7FF0010072
:102FE00018E0002D07D0F6B2DFF8B88032002900D3
:102FF000404600F0C7FADFF8600480F80771DFF898
:10300000580480F80641DFF8500480F80861FFF7A3
:1030100081FF0020BDE8F08180B5FDF710FA00289F
:1030200005D00023002200210120FFF7AFFF01BDE2
:1030300070B514001D00DFF82024C2F8F400DFF89A
:103040001804C0F8A011002C05D010227B4E2100DE
:10305000300000F097FA002D06D01022DFF800446F
:103060002900200000F08EFA0020FDF77AFBDFF83F
:10307000E803B0F8F8004FF659510840DFF8D813CC
:10308000A1F8F800DFF8D003B0F8F80050F40060C1
:10309000DFF8C413A1F8F800FEF71FF870BD0000B8
:1030A000BD0700202106002080B5DFF8AC1391F8A1
:1030B0008012C0B2814223D0DFF89C1381F88002D5
:1030C000C0B201280ED1DFF89003B0F8F8004FF637
:1030D0007E710840DFF88013A1F8F800002002F0AC
:1030E0001FFD0DE0C0B202280AD1FDF7A8F90028A3
:1030F00006D002F041FDC01C02F02CFFFFF748F99A
:1031000001BDDFF8540390F8800270470120DFF81A
:10311000481381F8930270473E080020DFF8381307
:10312000A1F8B0037047DFF8301381F8B20370479D
:1031300010B502F021FD040001212000FDF7EAFD99
:10314000011BC04A914202D17FF0010022E0C24936
:10315000C14A92F8EE2011EB820191F88C1011F027
:103160000301021B413A002A08D4BB4AC9B22423F6
:1031700003FB012191F82C10002901D0002009E067
:10318000001B4FF47A7181FB00014FF400420023D1
:1031900002F0A0FF10BD38B50400002500E06D1C52
:1031A000EDB2102D10DAAC48B0F8EC000121A940C6
:1031B0000842F4D02900C9B22000C0B2FDF767F977
:1031C0000128ECD1012000E0002032BDF2060020F1
:1031D00010B59CB00C0000AA0021C0B200F050F85D
:1031E000002000E0401C9DF80010C0B288420BD2C5
:1031F00000A9C0B211EB4001B1F844100122A24075
:103200001142EFD0012000E000201CB010BD924917
:10321000C1F8A8037047401C8F4981F8AC03704780
:1032200080B58D4991F8AD13C0B2884204D08A4967
:1032300081F8AD03FFF7FEFD01BD000096060020FA
:103240008849411A884A914201D2022011E08749F7
:10325000411A874A914209D38649411A864A9142C6
:1032600004D38649401A8649884201D2012000E0F1
:1032700000207047EC060020D12600081805002029
:1032800010B4C0B2012809D0032822D004283BD0B2
:1032900005286DD0812800F09A80B3E003201070DB
:1032A00078485060784890607848D060002006E008
:1032B0003F21C0B212EB4003A3F84410401C117828
:1032C000C0B28842F4D3002082F86400634890665C
:1032D000B2E0032010706E4850606E4890606E48F7
:1032E000D060002006E03F21C0B212EB4003A3F8FB
:1032F0004410401C1178C0B28842F4D3042082F8F4
:1033000064006648906697E0082010705B48506043
:10331000634890606348D0606348106163485061BF
:10332000634890616348D06163481062002006E002
:103330003F23C0B212EB4004A4F84430401C137881
:10334000C0B29842F4D3C9B200290BD10A20107040
:103350005A4850625A4890624020A2F85400802097
:10336000A2F85600002082F864005648906663E098
:103370000820107054485060544890605448D06001
:103380005448106154485061544890615448D06189
:1033900054481062002006E03F23C0B212EB400404
:1033A000A4F84430401C1378C0B29842F4D3C9B298
:1033B000002906D1092010704B485062C020A2F8A5
:1033C0005400002082F864004848906634E00320EE
:1033D00010702C4850602C4890602C48D060002021
:1033E00006E03F21C0B212EB4003A3F84410401C9A
:1033F0001178C0B28842F4D3032082F864001748E1
:10340000906619E0032010701E4850601E489060BE
:103410001E48D060002006E03F21C0B212EB4003FE
:10342000A3F84410401C1178C0B28842F4D30020A5
:1034300082F864000948906610BC70472C05002093
:103440008C07002000005046CF2000083F230008D2
:10345000512B0008C51000081805002008E6D333DA
:10346000A6060020C0FDD13391D0030000A1BC33DB
:10347000C1270900A091D633E193040040DA8E33CE
:10348000C1C62D00A027BE33E034C1332042C4336F
:1034900064CE8F3384FE9433E8E19D33F080A6330D
:1034A00080E79133C0F49433C029A1330037A433AB
:1034B0004044A7338051AA33C05EAD330002983335
:1034C000E0959C33006CB033E07D0B37208B0E37DA
:1034D00060981137A0A51437E0B2173720C01A370B
:1034E00060CD1D37A0DA2037C0111037A03BFC3665
:1034F00062F30F2262F31F42401810F0030308D05A
:10350000C91A1FD3DB0748BF00F8012D28BF20F8D8
:10351000022D130030B414461546103928BF20E997
:103520003C00FAD8490728BF20E90C0048BF40F802
:10353000042D890028BF20F8022D48BF00F8012D76
:1035400030BC7047C91818BF00F8012DCB0728BF41
:1035500000F8012D704710B450F8041B81B10268C7
:103560001218001D50F8043BDC0744BFA9F1010408
:10357000E31852F8044B43F8044B091FF9D1EBE769
:1035800010BC704762B38B0708D0521E11F8013B84
:1035900000F8013B00F024808B07F6D1830740F050
:1035A000208000BF103A07D330B4B1E83810103A89
:1035B000A0E83810F9D230BC530724BFB1E8081096
:1035C000A0E8081044BF51F8043B40F8043BD20780
:1035D00024BF31F8022B20F8022B44BF0B78037074
:1035E0007047083A07D3B1E80810083A40F8043B9E
:1035F00040F804CBF7D25307E4E750F8041B61B15D
:1036000050F8042BD30744BFA9F101039A180023F3
:10361000091F42F8043BFAD1EFE7704710B40020CD
:103620001FE0DFF8081851F82010DFF8002852F8E2
:10363000202012F47F42120252EA0161DFF8EC27E7
:1036400052F82020120A12F47F421143DFF8DC27DF
:1036500052F8202051EA1261DFF8D02742F82010FA
:10366000401C0428DDDBDFF8C417C96834E00422FD
:1036700090FBF2F303FB1203002B21D1DFF8B027FC
:103680000B0CDBB29A5CDFF8A8370C0AE4B2E35CFF
:103690001B0493EA0262DFF898370C00E4B2E35CA3
:1036A00092EA0322DFF88837090EC95C5140021FF5
:1036B000042392FBF3F2DFF87C3753F822205140C9
:1036C000DFF8682712EB800252F8102C5140DFF827
:1036D0005C2742F82010401C2C28C8DB10BC704727
:1036E0002DE9F84F06000C001500FFF797FF300793
:1036F0000DD50020DFF84017C860DFF83C17886060
:10370000DFF834174860DFF8301708608CE0DFF826
:1037100028070068DFF82017096811F47F410902C3
:1037200051EA0060DFF810170968090A11F47F41B7
:103730000843DFF80417096850EA1160DFF8F8164B
:103740000860DFF8F4064068DFF8EC16496811F409
:103750007F41090251EA0060DFF8DC164968090A76
:1037600011F47F410843DFF8D016496850EA116030
:10377000DFF8C4164860DFF8C0068068DFF8B816C6
:10378000896811F47F41090251EA0060DFF8A81648
:103790008968090A11F47F410843DFF89C1689689B
:1037A00050EA1160DFF890168860DFF88C06C06878
:1037B000DFF88416C96811F47F41090251EA0060FC
:1037C000DFF87416C968090A11F47F410843DFF86D
:1037D0006816C96850EA1160DFF85C16C86023E01B
:1037E0001F0E27701F0C67701F0AA770E370130E5F
:1037F0002371130C6371130AA371E2710A0E227212
:103800000A0C62720A0AA272E172010E2173010CA3
:103810006173010AA173E07316F00A00022801D057
:103820001034103D56F00806280040B20128C0F2BE
:10383000F8825FEA467C04D416F00A0CBCF1020F51
:103840000CD1DFF8F4050368DFF8EC054268DFF817
:10385000E8058168DFF8E005C06844E05FEA867C3F
:1038600040F1AC82ADB2112D80F2A8820023180085
:1038700019001A00ADB2102D01D1012700E0022776
:1038800056EA07162FE05FF0000E5EEA07271CF0ED
:10389000030EBEF1030F03D113000A00010038002C
:1038A0001CF1010CBCF1100F0BD2ADB2AC4502D231
:1038B0001CF804E0E9E7ADB2AC45E4D15FF0800E5E
:1038C000E3E7B7070FD5DFF870753F687B40DFF897
:1038D00068757F687A40DFF86075BF687940DFF807
:1038E0005875FF687840DFF844E51EF180070097BF
:1038F000DEF800707B40DEF804707A40DEF8087075
:103900007940DEF80C707840DEF81470DEF818802C
:10391000DEF81C90DEF810C0DFF820A59B465FFAA9
:103920008BFB5AF82BA09AEA0707DFF814A55FEA89
:10393000132B5FFA8BFB5AF82BA09AEA0808DFF8E2
:1039400004A55FEA134B5FFA8BFB5AF82BA09AEAA7
:103950000909DFF8F4A41B0E5AF8233093EA0C0C83
:10396000DFF8D83492465FFA8AFA53F82A3093EA9D
:103970000808DFF8CC345FEA122A5FFA8AFA53F8B3
:103980002A3093EA0909DFF8BC345FEA124A5FFA89
:103990008AFA53F82A3093EA0C0CDFF8AC34120E92
:1039A00053F822205740DFF894240B00DBB252F882
:1039B000232092EA0909DFF888240B0ADBB252F8C7
:1039C000232092EA0C0CDFF87C240B0CDBB252F8BB
:1039D00023205740DFF87024090E52F8211091EA95
:1039E0000808DFF858140200D2B251F8221091EA08
:1039F0000C0CDFF84C14020AD2B251F822104F40DE
:103A0000DFF84014020CD2B251F8221091EA0808F3
:103A1000DFF83414000E51F8200090EA0909DEF8AE
:103A20002420DEF82810DEF82C00DEF82030DFF845
:103A30000CA4E3465FFA8BFB5AF82BA09AEA020229
:103A4000DFF8FCA35FEA1C2B5FFA8BFB5AF82BA074
:103A50009AEA0101DFF8ECA35FEA1C4B5FFA8BFBEB
:103A60005AF82BA09AEA0000DFF8DCA35FEA1C6C8E
:103A70005AF82CC09CEA0303DFF8C0C3BA465FFAC9
:103A80008AFA5CF82AC09CEA0101DFF8B4C35FEA55
:103A9000172A5FFA8AFA5CF82AC09CEA0000DFF86D
:103AA000A4C35FEA174A5FFA8AFA5CF82AC09CEA64
:103AB0000303DFF894C33F0E5CF827707A40DF4FB2
:103AC000C4465FFA8CFC57F82C707840DC4F5FEAF4
:103AD000182C5FFA8CFC57F82C707B40D94F5FEAAA
:103AE000184C5FFA8CFC57F82C707A40D64F5FEA7E
:103AF000186C57F82C707940D04FCC465FFA8CFC8C
:103B000057F82C707B40CE4F5FEA192C5FFA8CFC83
:103B100057F82C707A40CB4F5FEA194C5FFA8CFC57
:103B200057F82C707940C84F5FEA196C57F82C7021
:103B300078401EF1200E009FBE45FFF4E5AEDEF892
:103B40001470DEF81880DEF81C90DEF810C0DFF884
:103B5000ECA29B465FFA8BFB5AF82BA09AEA070768
:103B6000DFF8DCA25FEA132B5FFA8BFB5AF82BA07D
:103B70009AEA0808DFF8CCA25FEA134B5FFA8BFBE6
:103B80005AF82BA09AEA0909DFF8BCA21B0E5AF8D2
:103B9000233093EA0C0CA94B92465FFA8AFA53F849
:103BA0002A3093EA0808A64B5FEA122A5FFA8AFADB
:103BB00053F82A3093EA0909A24B5FEA124A5FFAE6
:103BC0008AFA53F82A3093EA0C0C9F4B120E53F8E2
:103BD00022205740994A0B00DBB252F8232092EA88
:103BE0000909974A0B0ADBB252F8232092EA0C0C1F
:103BF000944A0B0CDBB252F823205740924A090E2C
:103C000052F8211091EA08088C490200D2B251F80A
:103C1000221091EA0C0C8A49020AD2B251F8221001
:103C20004F408849020CD2B251F8221091EA08089C
:103C30008549000E51F8200090EA0909DEF820308D
:103C40007B485FEA1C61085C93EA00637848390CA2
:103C5000C9B2085C93EA004375485FEA1821C9B20B
:103C6000085C93EA002372484946C9B2085C4340A5
:103C7000DEF824206E48390E085C92EA00626C4837
:103C80005FEA1841C9B2085C92EA004268485FEAFC
:103C90001921C9B2085C92EA002265486146C9B29E
:103CA000085C4240DEF8281061485FEA186A1AF89A
:103CB000000091EA00615E485FEA194A5FFA8AFAF9
:103CC0001AF8000091EA004159485FEA1C2A5FFA9D
:103CD0008AFA1AF8000091EA00215548BA465FFABC
:103CE0008AFA1AF800004140DEF82C00DFF840E1C3
:103CF0005FEA196919F80EE090EA0E60DFF830E12A
:103D00005FEA1C4C5FFA8CFC1CF80EC090EA0C4079
:103D1000DFF81CC13F0AFFB217F80C7090EA0720C9
:103D2000434F5FFA88F818F807707840B70751D505
:103D3000C6F30117FFB2002F43D05FEAD37C5FEADE
:103D4000D27E5EEA43035FEAD17E5EEA42025FEA28
:103D5000D07E5EEA41014000BCF1000F01D090F03E
:103D600087007F1E002FE8D1DFF8CCC0DCF800C050
:103D700093EA0C0CDFF8C0E0CEF800C0DFF8B8C062
:103D8000DCF804C092EA0C0CDFF8ACE0CEF804C01A
:103D9000DFF8A4C0DCF808C091EA0C0CDFF898E06A
:103DA000CEF808C0DFF890C0DCF80CC090EA0C0C2C
:103DB000DFF884E0CEF80CC016F0CF065FF0000C00
:103DC00070E51D4F3B601C4B5A601B4A91601A49BD
:103DD000C86021E577077FF503ADADB2112D02DB99
:103DE0005FF0100C01E0ADB2AC46002711E017F80F
:103DF00004E05FEA136898EA0E0E07F804E01B027D
:103E000017F0030EBEF1030F02D113000A000100E8
:103E10007F1C6745EBD30848C068401C0649C86052
:103E2000FAE405480068BDE8F28F0000380B002076
:103E300070D70008D8DA0008800F002020C90008D9
:103E400020C5000820C1000820BD00080320DFF8BD
:103E5000C41B81F83C000E20DFF8B81B81F83D0040
:103E6000C320DFF8B01B81F83E000020DFF8A41B60
:103E700081F83F000720DFF89C1B81F849000120F2
:103E8000DFF8901B81F84A000020DFF8881BC86427
:103E9000704730B585B004000D00CD208DF80C00C2
:103EA00028208DF80D000C2100A802F04FFB3620D1
:103EB0008DF80E00B5208DF80F00002005E0015DA3
:103EC00000AA825C51400155401CA842F7DB05B0B6
:103ED00030BD80B51021DFF8400BFFF7DAFF10216D
:103EE000DFF8380BFFF7D5FF0821DFF8280BFFF7C5
:103EF000D0FF1021DFF8280BFFF7CBFF01BD10B575
:103F00000024FFF7E6FF0120DFF8081B81F85000CE
:103F10005423DFF8002B0121022002F072FB00285D
:103F200000D1012402F033FD00280BD05423DFF828
:103F3000E42A0221022002F064FB002801D10124BE
:103F400000E00024FFF7C5FF2000C0B210BD10B58F
:103F50005423DFF8C02A0100C9B2022002F040FB5E
:103F60000400DFF8B00A90F85000002801D0FFF7F5
:103F7000B0FFE4B2002C03D0FFF768FF00200BE095
:103F8000DFF8900A90F84A00002804D10120DFF8F9
:103F9000841A81F84A00012010BDDFF8780A90F8F1
:103FA0003F00002801D0012000E00020C0B270478F
:103FB000C0B200280ED0C9B2002905D00220DFF817
:103FC000541A81F8480013E00120DFF8481A81F8FC
:103FD00048000DE0C9B2002905D00320DFF8341AEB
:103FE00081F8480004E00020DFF8281A81F8480032
:103FF000704780B5C9B2C0B2FFF7DAFFFFF77FFFA5
:1040000001BDDFF8100A90F84800802801D1002097
:1040100003E0DFF8000A90F84800704780B5FFF72A
:10402000F0FFC0B2002802D0C0B2032801D10020A6
:1040300000E0012002BD10B50400DFF8D80980F8C7
:104040003E4014F00100FEF7D0FE14F00400C0B2B0
:104050008008C0B2002803D00220FFF725F802E054
:104060000120FFF721F810BD38B5DFF8A80990F856
:104070003C00DFF8A01991F83D40C0B2082804DAEE
:10408000210049B2C0B2FEF7BFFEDFF8880990F800
:104090003E00800713D54FF47A72210049B2002008
:1040A000FCF725FC6422210049B20120FCF71FFC2B
:1040B0000A22210049B20220FCF719FC0CE000257D
:1040C00007E00022210049B22800C0B2FCF70FFC33
:1040D0006D1CEDB2032DF4DB31BD10B50400DFF82B
:1040E000340990F8AC0000285BD1DFF8280990F87B
:1040F0004A006179884207D021786079FFF768F833
:10410000002808D107204DE02078FFF744F8002868
:1041100001D1072046E02078DFF8F81881F83C004C
:104120006078DFF8F01881F83D00A078FFF783FF92
:10413000E078DFF8E01881F83F00E078002803D14C
:10414000802002F004FD08E0DFF8C80890F8AC0019
:10415000002802D1802002F007FD2079FF2801D13C
:10416000FE2020712079DFF8AC1881F84900207911
:10417000FFF751F8DFF89C0890F84A00617988420F
:1041800009D06079DFF88C1881F84A006079FFF770
:1041900047F800F080F9FFF767FFFFF7B0FE012056
:1041A00000E0002010BD10B50400DFF8680890F8AA
:1041B0003C002070DFF85C0890F83D006070DFF88C
:1041C000540890F83E00A070FFF7E7FEE070DFF8BB
:1041D000440890F849002071DFF8380890F84A0048
:1041E000607110BDDFF82C0890F83E00400601D544
:1041F000012000E00020704780B5DFF8181891F822
:10420000AC1000290DD10068DFF80818C864DFF889
:104210000408C06C40B2FEF786FFFFF770FE012075
:1042200000E0002002BDDFF8EC17C96C01607047A8
:1042300010B504000822DFF8DC172000FFF7A2F910
:1042400010BD10B50822DFF8CC4701002000FFF7B1
:1042500099F910BD10B504000822DFF8C81A200033
:10426000FFF790F910BD10B50822DFF8B84A010039
:104270002000FFF787F9FFF742FE10BD10B50400DC
:104280001022DFF89C172000FFF77CF910BD10B555
:104290001022DFF88C4701002000FFF773F910BDF2
:1042A00010B50C00FFF7CDFF2000FFF7F0FFFFF780
:1042B00026FE10BD10B50C00FFF7BAFF2000FFF777
:1042C000DDFF10BDDFF84C0790F83800DFF8441729
:1042D00091F8391050EA012080B2DFF8381791F8D0
:1042E0003A10DFF8302792F83B2051EA022189B2D8
:1042F00050EA01407047DFF81C1781F838000100D0
:1043000089B2090ADFF80C2782F83910010CDFF8AE
:10431000042782F83A10010C89B2090ADFF8F42662
:1043200082F83B10DFF8C81DC1F8A0017047DFF824
:10433000C00DD0F8A001704738B50C001022DFF88E
:10434000D85601002800FFF71DF91022DFF8CC56DF
:1043500021002800FFF716F931BD38B504000D0023
:104360001000FFF7C8FF29002000FFF7E5FF31BD6F
:1043700038B504000D001022DFF89C162000FFF76E
:1043800001F91022DFF894162800FFF7FBF831BD81
:1043900038B504000D00DFF87C0690F8810010F0BD
:1043A0007F00DFF8701681F88100FFF737FE0028E4
:1043B00001D1032023E0DFF85C0690F8AC00002870
:1043C0001CD1002C1AD4EDB2022D15D1FEF79EFEA1
:1043D00005990498002807D10091002300220121AB
:1043E000200000F035F90AE00091002300220121AD
:1043F000200000F01DF902E0042000E0002032BDA2
:1044000080B502F0C4FA002811D1DFF8080690F850
:104410003C00FEF7C0FE002806D10520DFF8F415A9
:1044200081F83C00FFF720FEFEF7F6FD06E0FFF7FF
:10443000B4FD002802D0802002F096FB01BD80B5BB
:10444000FFF740FFDFF8D435DFF8CC25010000206E
:10445000FEF7EEFDFFF708FEFFF7D2FF01BD80B5C6
:104460008020DFF8B01581F88100FFF7E8FF002118
:104470000120FFF7BEFD01BD10B58023DFF8944594
:1044800084F88130FFF769FFFFF7D9FF0021012091
:10449000FFF7AFFD10BD10B595210022DFF8544C99
:1044A0002000FFF725F80020DFF8681581F8AC0040
:1044B00000210020FFF79DFD00F033FAFFF76DFDAE
:1044C000002802D0802002F04FFB10BD10B5040080
:1044D000DFF8400590F8810010F07F00DFF8341518
:1044E00081F88100DFF82C0590F8AC0000281FD17E
:1044F000002C1DD40120DFF81C1581F8AC00DFF87A
:10450000140580F8814000210020FFF751FD00F0E4
:1045100008FA802C04D001210020FFF76AFD03E097
:1045200001210020FFF744FDFEF7D6F8012000E04E
:10453000002010BD2DE9F04104000D0016001F0001
:10454000DFF8D00490F8810010F07F00DFF8C41489
:1045500081F88100DDF81C800020C8F80000FFF71A
:104560005DFD002801D1032060E0DFF8A80490F889
:10457000AC00032804D10020DFF8981481F8AC00C7
:10458000DFF8900490F8AC0000284ED1DFF88404E6
:1045900080F88140FEF7CCFD10F1010F06D101201B
:1045A000DFF8701481F8AC0000203FE010F1020F3A
:1045B00006D10020DFF85C1481F8AC00072035E05C
:1045C000012803DBC8F8000006202FE02B00DBB237
:1045D000069A39003000C0B2FEF7D8FC002813D18B
:1045E000DFF8300490F8AC00032806D10020DFF893
:1045F000241481F8AC00052018E00120DFF8141421
:1046000081F8AC00012011E010F1010F06D101206A
:10461000DFF8001481F8AC00002007E010F1020F71
:1046200001D1022002E0032000E00020BDE8F0817B
:104630001CB500280AD4049C0194DBB2009313003B
:104640000A00D2B20121FFF775FF00E0002016BD7D
:104650001CB500280AD4049C0194DBB2009313001B
:104660000A00D2B20021FFF765FF00E0002016BD6E
:1046700010B5DFF87C0A90F8AC01800605D5012062
:10468000DFF8B41C81F8930004E00020DFF8A81CD8
:1046900081F89300DFF8580A90F8D101000605D59B
:1046A0000120DFF8941C81F8920004E00020DFF87C
:1046B000881C81F89200DFF8380A90F8D101C00612
:1046C0000DD5DFF82C0ADFF8281A91F8D211081856
:1046D00090F8D301DFF8601C81F8910004E0FF201E
:1046E000DFF8541C81F89100DFF8040A90F8D30138
:1046F000002826D0DFF8F80990F8D30181281ADACB
:10470000DFF8EC0990F8D321DFF8E409DFF8E019CD
:1047100091F8D211081810F5EA71DFF8204C20004A
:10472000FEF730FFDFF8C80990F8D301DFF8081C66
:1047300081F890000AE00020DFF8FC1B81F890006F
:1047400004E00020DFF8F01B81F89000DFF8A009FA
:1047500090F89002002805D00120DFF8DC1B81F8DA
:10476000940004E00020DFF8D01B81F89400DFF80B
:10477000800990F8940200281DD0DFF8740990F8A1
:104780009402102812DADFF8680990F89422DFF812
:10479000B01BDFF8A44B2000FEF7F4FEDFF8500951
:1047A00090F89402DFF8901BC87308E00020DFF84F
:1047B000881BC87303E00020DFF87C1BC87310BDA2
:1047C00080B5DFF82C0990F8EE00DFF8781B087050
:1047D000FFF724FC002808D1DFF8140990F8D00175
:1047E000401CDFF8601B887006E0DFF8040990F8D1
:1047F000D001DFF8501B8870DFF8F40890F8FC0057
:10480000DFF8401B487001BDDFF8E41891F8D111C2
:10481000C90711D5DFF82C1B0978DFF82C2B117094
:10482000DFF8CC1891F88212DFF81C2B51700121AF
:10483000DFF8142B11711EE0DFF8B41891F8D111D4
:10484000890718D58021DFF8002B1170DFF8A01838
:1048500091F8B611DFF8F02A51700221DFF8E82A4A
:104860001171DFF88C1891F8D111090703D50321D4
:10487000DFF8D42A1171DFF87818097BDFF8C82A2D
:104880009170DFF86C18497BDFF8BC2AD170C0B298
:10489000002837D0DFF85C0890F89300002818D083
:1048A000DFF8A40A0079012809D1DFF8A00AD0F8BE
:1048B000C000401CDFF8941AC1F8C0002BE0DFF8FC
:1048C0008C0AD0F8CC00401CDFF8801AC1F8CC006C
:1048D00021E0DFF8740A0079012809D1DFF86C0AB9
:1048E000D0F8BC00401CDFF8641AC1F8BC0012E02C
:1048F000DFF8580AD0F8C800401CDFF8501AC1F899
:10490000C80008E0DFF8440AD0F8D800401CDFF8FF
:104910003C1AC1F8D800704780B5802002F017F922
:1049200001BD80B53B4890F84A00FEF779FCFEF7E0
:1049300081FADFF81C0AFEF76AFC364890F83E0060
:10494000FFF779FB334890F84900FEF764FC00203C
:10495000FEF7E4FB2F48C06C40B2FEF7E4FBFFF724
:1049600083FB2C4890F84800012802D1FFF767FD2F
:1049700011E0284890F84800022809D0254890F80E
:104980004800032804D0234890F84800802802D12A
:104990008020FFF79BFD01BDDFF8B00990F83E00D5
:1049A000704710B50220FFF7D2FA0400FFF7A7FA0C
:1049B00000F0BAF92000C0B210BDDFF8901991F8EC
:1049C0008010052922DADFF88419DFF8802992F8AF
:1049D000802011EBC201C1F88400DFF87009DFF814
:1049E0006C1991F8801010EBC100DFF8601991F894
:1049F000801080F88810DFF8540990F88000411C7E
:104A0000DFF8482982F88010C0B201E05FF0FF3083
:104A100070470000CC080020E4080020F4080020C3
:104A2000D40800200A00002192B22C2AC0F276811C
:104A3000DFF81829D2F8B020C9B20A54DFF80C29DF
:104A4000D2F8B02092B2120AC9B20B185A70DFF82D
:104A5000FC28D2F8B020120CC9B20B189A70DFF8FB
:104A6000EC28D2F8B020120C92B2120AC9B20B187C
:104A7000DA70091DDFF8D428D2F8B420C9B20A547C
:104A8000DFF8C828D2F8B42092B2120AC9B20B18C3
:104A90005A70DFF8B828D2F8B420120CC9B20B183B
:104AA0009A70DFF8A828D2F8B420120C92B2120A39
:104AB000C9B20B18DA70091DDFF89028D2F8B820B7
:104AC000C9B20A54DFF88428D2F8B82092B2120A88
:104AD000C9B20B185A70DFF87428D2F8B820120C3B
:104AE000C9B20B189A70DFF86428D2F8B820120CFB
:104AF00092B2120AC9B20B18DA70091DDFF84C28FD
:104B0000D2F8BC20C9B20A54DFF84028D2F8BC2041
:104B100092B2120AC9B20B185A70DFF83028D2F8D4
:104B2000BC20120CC9B20B189A70DFF82028D2F8FA
:104B3000BC20120C92B2120AC9B20B18DA70091D0D
:104B4000DFF80828D2F8C020C9B20A54DFF8FC27E1
:104B5000D2F8C02092B2120AC9B20B185A70DFF80C
:104B6000EC27D2F8C020120CC9B20B189A70DFF8EB
:104B7000DC27D2F8C020120C92B2120AC9B20B186C
:104B8000DA70091DDFF8C427D2F8C420C9B20A546C
:104B9000DFF8B827D2F8C42092B2120AC9B20B18B3
:104BA0005A70DFF8A827D2F8C420120CC9B20B182B
:104BB0009A70DFF89827D2F8C420120C92B2120A29
:104BC000C9B20B18DA70091DDFF88027D2F8C820A7
:104BD000C9B20A54DFF87427D2F8C82092B2120A78
:104BE000C9B20B185A70DFF86427D2F8C820120C2B
:104BF000C9B20B189A70DFF85427D2F8C820120CEB
:104C000092B2120AC9B20B18DA70091DDFF83C27FC
:104C1000D2F8CC20C9B20A54DFF83027D2F8CC2021
:104C200092B2120AC9B20B185A70DFF82027D2F8D4
:104C3000CC20120CC9B20B189A70DFF81027D2F8EA
:104C4000CC20120C92B2120AC9B20B18DA70091DEC
:104C5000DFF8F826D2F8D020C9B20A54DFF8EC26E3
:104C6000D2F8D02092B2120AC9B20B185A70DFF8EB
:104C7000DC26D2F8D020120CC9B20B189A70DFF8DB
:104C8000CC26D2F8D020120C92B2120AC9B20B185C
:104C9000DA70091DDFF8B426D2F8D420C9B20A545C
:104CA000DFF8A826D2F8D42092B2120AC9B20B18A3
:104CB0005A70DFF89826D2F8D420120CC9B20B181B
:104CC0009A70DFF88826D2F8D420120C92B2120A19
:104CD000C9B20B18DA70091DDFF87026D2F8D82097
:104CE000C9B20A54DFF86426D2F8D82092B2120A68
:104CF000C9B20B185A70DFF85426D2F8D820120C1B
:104D0000C9B20B189A70DFF84426D2F8D820120CDA
:104D100092B2120AC9B20818C270091D0800C0B2C6
:104D2000704700000C09002080B5802001F00FFFC3
:104D3000FFF7F7FDFFF731F9002806D0FFF76EF90E
:104D4000002802D1802001F00FFF01BD30B4C9B2AC
:104D50004A0800230AE01C5CC9B24D1EED1A2D5C06
:104D60001D54C9B24D1EED1A2C545B1CD2B2934295
:104D7000F1DB30BC704710B504002000FFF758FA93
:104D800008212000FFF7E2FF10BD10B5040020004D
:104D9000FFF760FA08212000FFF7D8FF10BD80B5AB
:104DA000FFF76CFA01BD80B5C0B2052817D0062800
:104DB0002ED0082846D009285BD00A2870D01028A9
:104DC00000F03881112800F05081122800F0608135
:104DD000132800F07081142800F0758187E1DFF856
:104DE0006C05D0F8D400401CDFF86015C1F8D40081
:104DF000802001F0ACFEFFF7E3FC0220DFF84C1549
:104E000081F8AC000121DFF84C0501F0FAFF6EE1FA
:104E10000020FFF7F9FCFFF727F901210120FFF738
:104E2000E8F801F0B4FD002804D00020DFF81C15DC
:104E300081F8AC000221DFF81C0501F0E2FFFFF76A
:104E4000DFFA54E10020DFF8041581F8AC0080207F
:104E5000DFF8F81481F848000421DFF8F80401F0C5
:104E6000D0FFFFF79AF8002802D0802001F07CFEE6
:104E70003DE10020DFF8D41481F8AC008020DFF899
:104E8000CC1481F848000421DFF8C80401F0B9FF10
:104E9000FFF783F8002802D0802001F065FE26E1AC
:104EA000934890F8D1010321084249D1FFF788FCCB
:104EB000802001F04CFE0120DFF8901481F8AC0056
:104EC0008B4890F8070101281DD1DFF88004D0F845
:104ED000B400401CDFF87414C1F8B400DFF86404B7
:104EE0008078DFF8681491F84910491C884204D191
:104EF0000220DFF8581481F8AC001021DFF85404C8
:104F000001F07FFF95E0DFF84404D0F8B000401CCA
:104F1000DFF83814C1F8B000DFF82804807874494D
:104F200091F8FA10491E884204DB0220DFF81C14B5
:104F300081F8AC000821DFF81C0401F062FF78E082
:104F40006B4890F8D201002867D0FFF791FB012051
:104F5000FFF75AFC674890F89300664991F894105F
:104F60000843C0B2002804D1614890F8A402102878
:104F700005DB0120DFF8D41381F8AC002BE05D489D
:104F800090F8920000280AD0DFF8B8038078002853
:104F900005D00020DFF8B41381F8AC001BE0DFF887
:104FA000AC0390F8AC0002280AD0DFF8A00390F818
:104FB000AC00002804D04E4890F80701002805D125
:104FC0000020DFF8881381F8AC0004E00120DFF84E
:104FD0007C1381F8AC00DFF870030079032809D155
:104FE000DFF8680390F8810050F08000DFF85C1370
:104FF00081F881002021DFF85C0301F002FFFEF759
:10500000CCFF002815D0DFF8440390F8AC0000284E
:105010000FD1802001F0A8FD0BE00020DFF82C1359
:1050200081F8AC00FEF7B9FF002802D0802001F023
:105030009BFD5CE0DFF8140390F8AC00022808D177
:105040002C4890F89400002803D10020BF4981F833
:10505000AC004021BF4801F0D4FEFEF79EFF0028BF
:1050600002D0802001F080FD41E0B848D0F8B800BF
:10507000401CB649C1F8B8000020B44981F8AC0022
:10508000FEF78BFF002802D0802001F06DFD2EE09E
:10509000AE48D0F8B800401CAC49C1F8B8000320B5
:1050A000AA4981F8AC00FEF778FF002802D08020E2
:1050B00001F05AFD1BE0FEF770FF002802D08020AF
:1050C00001F052FD13E00A4890F8D101C00707D55E
:1050D0009E48D0F8C400401C9C49C1F8C40006E0BA
:1050E0009A48D0F8D000401C9849C1F8D00001BDC2
:1050F00018050020E80B002070B5964801F096FED8
:105100000400002504E000203168896988476D1C8F
:105110008E4890F88000854280F0DA808B4810EB52
:10512000C50010F18406A00675D5834890F891005B
:10513000E02853D1804890F89000042818D17E4888
:10514000007C012814D17C48407C012810D17A4889
:10515000807C01280CD17848C07C012808D13068B7
:10516000C069002815D001203168C969884710E05E
:105170007148007C00280CD16F4890F890000128FD
:1051800007D13068C069002803D000203168C969A0
:10519000884730796D4991F88110884207D030797D
:1051A000002804D0694890F88100000633D53068A3
:1051B000406900282FD0654890F8AC00002806D13F
:1051C00001225D49604833685B69984723E000220B
:1051D00059495D4833685B6998471CE030795B4901
:1051E00091F88110884204D0584890F88100000658
:1051F00011D5564890F8AC00002806D101224E493E
:10520000514833685B69984705E000224A494E4897
:1052100033685B69984730794C4991F8811088422E
:1052200005D04A4890F8810000067FF570AFE0078E
:1052300009D53068006800283FF469AF41483168FB
:105240000968884763E7A0070CD5306840680028E4
:105250003FF45DAFFFF76BF801003B4832685268DE
:10526000904754E7600708D53068806800283FF40D
:105270004EAF30688068804749E7E00609D530685E
:10528000C06800283FF443AF2E483168C96888479A
:105290003DE7200709D53068006900283FF437AFA3
:1052A000284831680969884731E760067FF52FAFE4
:1052B0003068806900283FF42AAF244890F8AC0099
:1052C00000287FF420AF01203168896988471EE7F4
:1052D000204801F084FD70BD80B5802001F037FCCE
:1052E000202001F041FC8020184981F88100002035
:1052F000164981F880000020144981F8AC00012093
:105300000090124B144A1549124801F036FD00F086
:1053100025FC134801F0EFFC124B134A13491448C3
:1053200001F0FAFB012000F0BFFE0120FEF70FFEA6
:10533000FFF7FAFC01BD0000E80B0020F80B00208D
:10534000AD0700206010002014100020CC080020C1
:105350001949000830090020F950000810DC000845
:10536000315C0008D55C0008CD5C0008975C000843
:105370002009002038B504000D00002000F05FFD7A
:1053800054F08000C0B200F08FFD2800C0B200F0E1
:105390008BFD012000F053FD31BD10B5040000204D
:1053A00000F04DFD14F07F0000F07EFD002000F0C5
:1053B0007BFD0400012000F042FD2000C0B210BDC2
:1053C00070B504000D001600002000F038FD54F008
:1053D0008000C0B200F068FD002404E0E4B2605D2B
:1053E00000F062FD641CE4B2F6B2B442F6D30120D0
:1053F00000F025FD70BD70B504000D001600002002
:1054000000F01DFD14F07F0000F04EFD002405E0CB
:10541000002000F049FDE4B26055641CE4B2F6B22D
:10542000B442F5D3012000F00AFD70BD10B50400B0
:105430000120FFF7B2FF10F0F80054EA0001C9B2F2
:105440000120FFF797FF10BD80B58021C9B2012070
:10545000FFF790FF01BD80B50021C9B20120FFF721
:1054600089FF01BD38B5DFF89806C089FAF742FE1A
:105470000400DFF88C06C089FAF73FFE8501DFF8EB
:105480008006C089FAF73DFE002805D0022809D021
:1054900005D3032809D00AE055F0080507E055F0C8
:1054A000100504E055F0180501E055F02005E4B2C0
:1054B000052C02D0E4B2062C08D1DFF84406C089DE
:1054C000FAF71BFE002801D155F00105DFF8300680
:1054D000C089FAF722FE002801D155F00205DFF855
:1054E0002006C089FAF724FE00280BD055F00405E9
:1054F000DFF80C06C089FAF71BFE0100C9B22220B2
:10550000FFF738FF2900C9B21D20FFF733FF200144
:10551000603050F00401C9B21E20FFF72BFF31BDEF
:1055200038B5DFF8DC0580680021C90441EA503154
:10553000C004DFF8D025002300F0EEFD04000D00CC
:10554000DFF8BC05B0F9B003C11724184D41210C98
:10555000C9B20620FFF70EFF200080B2010AC9B2CF
:105560000720FFF707FF2100C9B20820FFF702FF5D
:1055700031BD80B5DFF88805807CDFF8841591F8AF
:10558000B213081840B2122801DB112003E040B228
:10559000022800DA0220801E50F08001C9B20920E2
:1055A000FFF7E8FE01BD80B510210120FFF7E2FE04
:1055B0000120FFF7F2FE102801D000F0FCFC0120D2
:1055C000FFF734FF02210220FFF7D4FE80210320E1
:1055D000FFF7D0FE01210420FFF7CCFE9921052022
:1055E000FFF7C8FE00212520FFF7C4FE0521262075
:1055F000FFF7C0FE12212720FFF7BCFED02130208C
:10560000FFF7B8FE40213120FFF7B4FEC12128206A
:10561000FFF7B0FE94212920FFF7ACFEC1212A201C
:10562000FFF7A8FEFFF77CFFFFF7A3FF3421402020
:10563000FFF7A0FE98213520FFF79CFEDFF8C0049D
:1056400090F8D301411CC9B23220FFF793FEDFF876
:10565000B00490F8D3110020FFF78CFEDFF8A0040F
:1056600090F8D321DFF8A0140020FFF7A9FE012055
:1056700000F0EDFB0320FFF7D9FE01BD80B5FFF779
:10568000E3FE0120FFF789FE000601D400F093FC41
:105690000120FFF7CBFEFFF7E5FEFFF741FF0A20F1
:1056A000FFF77BFE10F0F00050F00801C9B20A20AD
:1056B000FFF760FEFFF75DFF34213920FFF75AFE48
:1056C000F0214020FFF756FEFF211220FFF752FE87
:1056D000F7211120FFF74EFE00210E20FFF74AFEB2
:1056E00000210D20FFF746FEDFF8140490F8D311D7
:1056F0002220FFF73FFEDFF8080490F8D321DFF8FF
:1057000008140020FFF75CFE012000F0A0FB03203E
:10571000FFF78CFE01BD80B50120FFF73EFE07219B
:10572000084201D000F047FCDFF8D403C089FAF743
:10573000E1FC002802D1FFF736FF01E0FFF79EFFF2
:1057400001BD10B50400FFF77FFE0120FFF725FE25
:10575000000601D400F02FFC0120FFF767FEE4B241
:10576000022C08D10A211D20FFF704FE74211E20FF
:10577000FFF700FE03E0FFF775FEFFF7D1FE2321E0
:105780000C20FFF7F7FD01212220FFF7F3FD802118
:105790002320FFF7EFFD3320FFF7FFFD50F040011E
:1057A000C9B23320FFF7E6FDDFF85403017C1F2068
:1057B000FFF7E0FD34213920FFF7DCFDC021402058
:1057C000FFF7D8FDFF211220FFF7D4FDCF48E4B248
:1057D000205CC143C9B21120FFF7CCFD002000F0CE
:1057E00036FBE4B2002C07D1C548406800F0B2FB9C
:1057F0000620FFF71BFE02E00520FFF717FE10BD95
:1058000080B5C0B2002801D000F0D5FBFFF723FE21
:105810000120FFF7C2FD000601D500F0CCFB0120FE
:10582000FFF704FEFFF77CFE23210C20FFF7A2FD0B
:105830001E210D20FFF79EFD0B211220FFF79AFD80
:1058400012211320FFF796FDAA211F20FFF792FDDA
:1058500012212720FFF78EFDD8213020FFF78AFD87
:1058600040213120FFF786FDC1212820FFF782FD6E
:1058700094212920FFF77EFDC1212A20FFF77AFD20
:105880009F48017C2120FFF775FD02210220FFF7D0
:1058900071FD80210320FFF76DFD01210420FFF73A
:1058A00069FD99210520FFF765FD38214020FFF7AC
:1058B00061FDFF213220FFF75DFD002000F0C7FAF7
:1058C0008F48406800F046FB0520FFF7AFFD01BDA3
:1058D00010B504000120FFF760FD0721084201D048
:1058E00000F069FB8648C089FAF704FC002804D15F
:1058F0002000C0B2FFF784FF03E02000C0B2FFF732
:1059000020FF10BD70B500F0D4FA012000F0B8FA05
:1059100000F032F9203000F01DFB022000F0B0FA58
:1059200000F02AF900F2471000F014FB0020FFF706
:105930007DFD4220FFF731FDC0B2222801D000F0EA
:105940003AFB0220FFF7FDFE0120FFF726FD10F0D5
:1059500007000528F8D1012416E02C20FFF71DFDD3
:1059600010F00105EDB22C20FFF717FD10F001003B
:105970008542F2D06648205C55EA40006449605494
:10598000761C082EE9DB641C102C01DA0026F8E7EF
:1059900010205F4908700020FFF748FD00F098FADA
:1059A00070BD10B55A480478E4B2002C01D100F063
:1059B00002FBE4B2102C05D1102255490020FDF75E
:1059C0008FFE00245248E4B2205C641C50490C70E5
:1059D000C0B210BD38B500F0CFF804000120FFF7C9
:1059E000DCFC00064FD51220FFF7D7FC010741D49D
:1059F000410639D54248C089FAF77FFB002807D114
:105A00003F48C089FAF776FB424931F81000241A62
:105A10003B4844601D20FFF7C0FC400703D522200F
:105A2000FFF7BBFC02E01320FFF7B7FC344981F815
:105A3000D3011020FFF7B1FC0100C9B20D20FFF720
:105A400099FC2F4890F8D3212F490020FFF7D3FC71
:105A50001920FFF7A2FC2A4948731A20FFF79DFC82
:105A60003D382749087305E0000603D50020244986
:105A700081F8D301FF211120FFF77CFCFF211220C8
:105A8000FFF778FC2AE03E20FFF787FC05003F2067
:105A9000FFF783FC010721D4400714D51848446060
:105AA00001221D490020FFF7A6FC154890F8D321DC
:105AB00015490020FFF79FFC002011494873002082
:105AC0000F4908730AE0680704D500200C4981F8E3
:105AD000D30103E000200A4981F8D3010020FFF739
