:020000040800F2
:100000003016002015E20008375C0008D3670008AE
:1000100000000000000000000000000000000000E0
:1000200000000000000000000000000077730008DE
:100030006375000800000000F7800008A5AA00080A
:1000400065810008779D0008679C000817A80008D4
:10005000438A0008A3680008E168000821690008D5
:1000600000000000C7B9000803E1000877E30008BA
:1000700083E30008F5E3000800000000F7E3000850
:1000800000000000F9E3000800000000000000008C
:100090000B5A000800000000FBE30008FDE3000825
:1000A000FFE3000801E4000803E400082DBF000896
:1000B00005E4000807E4000800000000000000005C
:1000C0004007400F704780B2C0108007800F704714
:1000D00080B240118007800F7047A44A0240C9B225
:1000E0004801104380B2704780B20100C911080076
:1000F000C007C00F7047B74A0240C801104380B222
:10010000704780B2000A80B27047B849C0B2081880
:10011000407880B2704780B5C0B2FFF7F6FF01218A
:1001200080B2FFF7E8FF02BD00B5B049C0B2095C7C
:10013000FF2900D0401EC0B200BD00B5AB49C0B21F
:1001400008184078FF2801D0012000E00020C0B24C
:1001500000BD10B50C0002E0C0B2FFF7E5FF2100C2
:100160004C1EC9B20029F7D1C0B210BD0178407849
:100170000002084380B270470178427812020A43B5
:10018000817809041143C078000608437047C1789C
:10019000827812020A43417809041143007800066C
:1001A000084370470A00027089B2090A417070471B
:1001B0000A0002700A00120A42700A00120C8270D1
:1001C000090EC17070470A00C2700A00120A8270DC
:1001D0000A00120C4270090E01707047FF20704730
:1001E000F2B5040015001E0010210022AF4F3800A8
:1001F00002F00CFF4920AD490870002D03D001200A
:10020000AA49487102E00020A8494871A748C6736E
:100210002100BE48FFF7CCFF0099BD48FFF7C8FF9B
:10022000F1BD70B50400080011001A00059D2B00F7
:10023000FFF7D6FF10222100B64C200002F012FF7B
:10024000049C2A0092B22100022002F0A1FF0600C5
:100250006019FFF79CFF864201D1012000E00020D9
:10026000C0B270BD38B50400080011001A00059D29
:100270002B00FFF7B5FF10222100A64C200002F052
:10028000F1FE049C2A0092B22100022002F080FFBD
:1002900001006019FFF797FF31BD38B504000D006C
:1002A0009C4804F054FA2A0092B221000A2002F07D
:1002B0006FFF01006019FFF786FF31BD70B50400C4
:1002C0000D00944804F043FA2A0092B221000A205B
:1002D00002F05EFF06006019FFF759FF864201D168
:1002E000012000E00020C0B270BD38B504000D0050
:1002F000884804F02CFA2A0092B22100002002F073
:1003000047FF31BDF4B504000D001E000798012819
:1003100029DB10210022654F380002F077FE012012
:100320006249C8736148C07B60490870002E03D0E1
:1003300001205E49487102E000205C4948712900B3
:100340007248FFF735FF00997148FFF731FF10221F
:100350002100704C200002F085FE079A92B20699A7
:10036000042002F015FFF1BD000000009FFF000017
:10037000F8B506000F0014001D0010210022200017
:1003800002F044FE012020700622390027007F1C65
:10039000380002F067FE310089B22000C01DFFF76F
:1003A00001FF10222100280002F05CFE02202870CC
:1003B000584804F0CCF910222100002002F0E8FE99
:1003C000544804F0C4F910222900002002F0E0FE95
:1003D000F1BD00007FFF000000B5BA480078052895
:1003E00001D1022000E0012000BD0000C0E30008B0
:1003F00000B5B5480078012801D1012000E00020B7
:1004000000BD10B5002100E0491CC9B2102914DA62
:10041000BC4A128801238B401A42F5D00122824047
:10042000521EB94BC9B202244C431B19CC331B8852
:100430001A40002AE8D0002000E0012010BD00B5DD
:10044000B04A128801238B401A420BD0AE4AC9B27F
:10045000022359435118CC3109880141C80701D5FD
:10046000012000E0002000BD70B504000D00002652
:1004700000E0761CF6B2102E15DAA348F6B204217D
:10048000714340188C3000788007800FEDB2A8428D
:10049000EFD13100C9B22000C0B2FFF7D0FF002871
:1004A000E7D0012000E0002070BD000058110020BE
:1004B00070B504000D00002600E0761CF6B2102E88
:1004C0000FDA0120B040290089B20142F5D0310095
:1004D000C9B22000C0B2FFF7B2FF0028EDD0012062
:1004E00000E0002070BD38B50500280080B2FFF79D
:1004F000E7FD0400280080B2FFF7E5FDCA49E4B239
:10050000032254430919085C8D3832BD5E11002066
:1005100062110020380B0020F1B582B00D00684652
:100520000089FFF7D0FD6946487068460089FFF7EB
:10053000C7FD0400E4B2002C09D1EDB20B358020D8
:10054000C00245432800714904F0C4FB58E026006E
:10055000B61D04204643E4B2052C01DB082000E070
:1005600000206946301A087068460089FFF7BCFD14
:10057000002801D0002700E0102768460089FFF717
:10058000C0FD002801D0142000E00020EDB20821B9
:100590004D43F6B2A91BC9191C31081A012812DBF8
:1005A000694609784018401E6946097804F092FBB4
:1005B000050068460089FFF78BFD0100491D2800F2
:1005C0004843083000E0082080003130641C694650
:1005D0004978661ABD4DF6B2052E02DB311F0D417A
:1005E0000426B0408021090248430400280002216B
:1005F00004F070FB010020004018290004F06AFBA1
:10060000FEBD70B5040004F0D5FEC0B20602350090
:1006100004F0D0FE2E000643B6B23000C249884234
:1006200006DBB6B230008021090204F053FB08005B
:10063000E4B2002C0BD00500F6B23000E4B2210089
:1006400004F048FB8020000241432800401870BDA0
:1006500070B506007618002513E0207B00280FD126
:10066000A068B0420CDA2000103004F0B0FFA660A1
:1006700000202073AD4AA1681034200004F0D3FF9D
:100680006D1CEDB2032D19DA1F48EDB22421694328
:10069000441820342020205C0028F1D02088002835
:1006A00002D0207B0028D8D0A660002020739F4A6B
:1006B000A1681034200004F0B6FFE1E770BD9C484B
:1006C00001707047C5080020BE08002000B552B276
:1006D0007F20C043824201D096480270944800783F
:1006E000C9B2884208D0924801709348008880219E
:1006F00009010143904801803F20C043D34908705D
:1007000000BD0000040600201805002050C30000B2
:1007100038B5040040210022884D280002F076FC04
:1007200020210022AB4D280002F070FC6C21002239
:10073000A94D280002F06AFC0020A849087000209A
:10074000A7490870A74A2100C9B2A748007802F05B
:100750002BFBA4480078A5490870002413E000236F
:10076000DB43A048E4B202216143401844300288D0
:100770009C48E4B204216143401841682000C0B2A3
:1007800000F0DEF8641C97480078E4B28442E6D3B7
:10079000AF480078AF4908709248806EAE49086053
:1007A000FA208000BF4908840E20AC4908700E2052
:1007B000AB49087004F0FEFD102104F08BFABA4832
:1007C00001706420B94908800E20B94908700E20D4
:1007D000B849087004F0EEFD102104F07BFAB64829
:1007E00001700A20B54908800E20B5490870142010
:1007F000C649087004F0DEFD102104F06BFAAE4823
:10080000017004F0D1FEA7490867A649C864A5494C
:1008100088620020BE4908700120BE49087002208D
:10082000BD49087031BD000098E3000810B5C0B2A2
:10083000042801DB002014E09A4BC0B2242460435A
:1008400018182030C170028092B2002A08D12021ED
:10085000415C002904D001210173103004F0B7FE7F
:10086000012010BD10B58F49C0B2042250430818B2
:100870008C3000788407A40F8A48E4B224216143B5
:1008800040184030007800280FD101208549E4B29B
:100890002422624389182C31087004F085FE8149B6
:1008A000E4B224226243891888627E48E4B224219B
:1008B0006143401840300078401C7A49E4B2242259
:1008C000544309194031087010BD0000093D000073
:1008D00000B59249C0B20422504308188C30007809
:1008E0008007800F8D49C0B22422424389184031CD
:1008F0000978491E894AC0B224234343D2184032A2
:1009000011708649C0B224224243891840310978C7
:10091000002907D10021814AC0B22423584310186E
:100920002C30017000BD000001800000CB0B0008DE
:10093000140600201306002010060020A405002045
:1009400070B505000C0016001800EDB2102D01DB8B
:1009500000203EE040B20021C943884221D120005E
:1009600002F0F0F903218C432100040064B20C432F
:100970004C48EDB20421694340188C3000680028CF
:1009800003D02800C0B200F033F84648EDB204218D
:10099000694340188C300460B6B2002E06D13F2661
:1009A00004E040B20428DDDB002012E03D48EDB257
:1009B000022169434018CC300680AD4800880121EF
:1009C000A9400143AA4801802800C0B2FFF74AFFAE
:1009D000012070BDE40500203805002099070020A3
:1009E000A0070020080E0020C5080020C60800202F
:1009F00010B504002B48E4B20421614340188C3048
:100A00000068002820D09A4800880121A1400842AF
:100A100003D02000C0B2FFF75BFF00202149E4B201
:100A20000422624389188C31086000201D49E4B219
:100A3000022262438918CC3108808D480088012148
:100A4000A14088438A49088010BD0000C5060020E7
:100A50006C0E0020CE060020D00600203B050020B2
:100A60003A05002010B5401EFFF786FB0400240A5B
:100A700064204443FFF7B0FCC0B2012802D0022832
:100A800007D00CE07B48201A7B49884200D3002421
:100A900005E07A48201A7A49884200D300242000D1
:100AA00010BD0000180500203C0500205C0500205A
:100AB0005F0500205E050020600500208005002005
:100AC0008305002038B50400002504E02800C0B2EA
:100AD000FFF7FEFE6D1CEDB2102D15DAA4B2012059
:100AE000A8402040624909880122AA400A40904259
:100AF000F0D05F4800880121A9400842E6D02800D4
:100B0000C0B2FFF7AFFEE5E731BD0000820500206F
:100B100054050020780500209C05002018050020C1
:100B200038B503000C00100051490D88DBB2602B72
:100B30001BD1002010E05349C0B20422424389185F
:100B40008C310968002906D0494909880122824070
:100B50000A4347490A80401CC0B21028EBDB28003A
:100B600080B2FFF7AFFF01202EE0DBB2002B02D1F5
:100B7000A4B2002C01D1002026E0002100E0491C95
:100B8000C9B2102910DA01228A4023009BB2134215
:100B9000F5D03C4AC9B204234B43D2188C321268B8
:100BA000002AECD100200FE0210089B2C0B2FFF78B
:100BB0007FFC002801D1022006E02D480480280097
:100BC00080B2FFF77FFF012032BD2E49007B242237
:100BD000504308182030012101737047F8B5070011
:100BE0002848BE4909780422514340188C300568D2
:100BF000BB4801782348C089FFF78EFC06002148D6
:100C0000A907890F24225143441820340320854327
:100C10001C4885600220205603216156884203DA71
:100C2000A0781849887402E0E07816498874208812
:100C300070433818A0602088002808D00020207356
:100C4000B84AA1681034200004F0EDFC04E0012053
:100C5000207304F0A9FCA060B3480078002805D0F8
:100C6000B14800788640B819B0490860F1BD00006D
:100C700004060020C0557033C1CF6A00806DC335B3
:100C800081BA8C0118050020F3B585B00F206946A4
:100C90000870FF240598CE49471800251DE0A44898
:100CA000EDB22421694340182C300078002813D07D
:100CB0000598C749401887420ED12900C9B29D48FE
:100CC0000078FFF7D1FB002806D02C009848E4B24A
:100CD000242161434018876A6D1CEDB2032D27DA89
:100CE000684600780121A9400842D8D09048EDB26A
:100CF000242169434018806A381A0128CFDB8C48C8
:100D0000EDB22421694340182C3000780028E3D04C
:100D10002900C9B287480078FFF7A6FB0028DBD07E
:100D20002C008348E4B2242161434018876AD3E74A
:100D30000598381AA649884240D17D486749097804
:100D40000422514340188C3000788607B60F761C79
:100D5000F6B2032E00D1002600252CE0684600786C
:100D60000121B140084220D07148F6B224217143DC
:100D70004018806A381A012817DB6D48F6B2242122
:100D8000714340184030007800280ED03100C9B2BD
:100D900068480078FFF768FB002806D034006448F4
:100DA000E4B2242161434018876A761CF6B2032E10
:100DB00000D100266D1CEDB2032DCFDB0598381A4B
:100DC0008349884201D1380085E00020002116E0E7
:100DD000E4B2574AC9B204234B43D2188C3212787A
:100DE0009207920F944209D17A4A128801238B40CC
:100DF0001A4203D001AAC0B21154401C491CC9B206
:100E00001029E5DB04F0D6FAC0B24949E4B2242245
:100E1000624389184031097803F05CFF002013E039
:100E2000491C434AE4B224236343D2184032127867
:100E3000C9B2914207D33E4AE4B224236343D21895
:100E400040321278891A401C394AE4B224236343A1
:100E5000D21840321278C0B2904239D201AAC9B237
:100E6000525C5C4B1B88012595402B42D8D0304BFF
:100E7000D2B2022555435B19CC331B882D4D2D78FA
:100E80002D072D0F9BB2EB40DB07C9D5E4B2284BF1
:100E9000D2B2042555435B198C331B789B079B0FFB
:100EA0009C42BDD16846007E00280FD12048E4B2A4
:100EB000242161434018243002701D48E4B22421EB
:100EC0004C4300192430007804490870380002E0CF
:100ED00005983F49401807B0F0BD00000606002005
:100EE000EB06002080B50E20644908700521002023
:100EF000FFF7E5FB0120FFF70BFC04F05BFAC0B243
:100F00005F49097803F0E6FE5E4801705E4800889C
:100F1000000501D504F073FD04F046FB5B49086051
:100F200001BD0000CB0B00080706002008060020CA
:100F3000180500201406002038B5002404F034FB06
:100F40000021FFF7A1FE50480088514901404E485A
:100F5000018004F029FB05004C484A490978042225
:100F6000514340188C30006848498007800F242284
:100F70005043081820308168691A002900D5856817
:100F8000FF20444909780841C0B2FFF73AFB28180E
:100F90008021090240183D4908603F480078401C04
:100FA0003D4908703C480078C0070ED439480078A5
:100FB000002801D1012408E036480078FFF7B4F892
:100FC0000100C9B20120FFF77AFBE4B2200032BD74
:100FD000000050460406002080B501F0CFFB01BDA3
:100FE00080B5C0B203F0B7FB01F0C8FB01BD80B50E
:100FF00000202A4908602948006829490860002023
:1010000028490870002028490870002027490870E6
:101010002749087027490870274908700020274988
:101020000870274908702749087027490870002070
:101030002649087025480078254908700020254970
:1010400008700020244908703F20C04323490870DD
:1010500005202349087023482349086003202349B9
:101060000870012022490870084812214256214880
:1010700001780020FFF72AFB01BD000013060020C5
:10108000C6080020060600201006002018050020D3
:10109000FFF7000014060020E8060020C00600202C
:1010A000BC06002016060020A8070020C906002064
:1010B000C8060020C6060020C4060020CC0600207A
:1010C000CD060020D4060020CB060020AB07002070
:1010D000A9070020D706002012060020C506002020
:1010E0006C07002008E6D333E4060020D806002071
:1010F000BE080020AA07002000B5C0B2002804D016
:10110000C0B2062801DA012000E0002000BD00B5D1
:10111000C0B2062801DA012000E0002000BD000076
:10112000F3B581B0C748007820210840C0B240091B
:10113000002804D1C4480078012800D163E20020CF
:10114000C2490870002400E0E41C0298844200DBDD
:1011500059E20198005D0228F6D000D253E204283B
:1011600000D179E10AD3062800D1B2E000D2DDE057
:10117000082800D11EE200D28AE144E20198001959
:10118000467801980019801CFEF7F0FF05006846BC
:10119000019909190979F0220A4042700198001951
:1011A000007907073F0F641DA9480078802871D196
:1011B0008720A849087068463100C9B20909017042
:1011C00068460078FEF7B9FF002806D1A1480078EC
:1011D000FD2101409F4801705FE03607360F300067
:1011E000C0B2FFF789FF002806D19A480078FB219A
:1011F00001409848017050E068460278290089B2A1
:1012000068464078FFF78CFCC0B2002806D19148B0
:101210000078FE2101408F48017008E0C0B202282A
:1012200005D18C480078FD2101408A480170894829
:1012300000784006400E07282FD1DA480770DA48B8
:10124000F6B23107090F4256684601780420FFF7CD
:101250003DFA0020C0B210281FDAD44909880122C3
:101260008240114214D0D249C0B2042242438918AC
:101270008C3109788907890FCB4AF6B233071B0FE7
:10128000D25CCB4BC9B224256943591823310A706B
:10129000401CDFE780206F4908700320C4496B4A77
:1012A00012788918D84A885468480078401C6749E1
:1012B0000870684800784007400FBD49634A1278BB
:1012C0008918D14A885461480078401C5F490870E9
:1012D0003BE70120CD4908700620B5495B4A1278EA
:1012E0008918C94A885459480078401C57490870E1
:1012F000564805782800401C54490870FEF76EFFD8
:10130000AB49EDB24919C04A8854C14800788006FB
:10131000800EA7494D4A12788918BB4A88544B4819
:101320000078401C49490870641C0EE701980019B8
:10133000407807073F0F019800194078C0B20009B4
:1013400045076D0F01980019801CFFF78BFB060005
:10135000641D8020AF4908703800C0B2FEF7EDFE72
:10136000002806D0AB48007802210143A94801704B
:1013700005E0A8480078FD210140A648017028003A
:10138000C0B2FFF7C4FE002806D0A24800780421AE
:101390000143A048017005E09E480078FB21014010
:1013A0009C480170002E06D09A4800780121014324
:1013B0009848017005E097480078FE210140954863
:1013C000017094480078872805D1934805709348A8
:1013D000077093480660052075491C4A12788918E1
:1013E000894A885419480078401C1849087089486F
:1013F00000784007400F6E49144A12788918824AD3
:10140000885412480078401C10490870052068492B
:10141000844A12788918844A885482480078401C8B
:10142000804908707B4800784007400F60497D4A3A
:10143000127889187C4A88547A480078401C794987
:10144000087082E6F10600201F060020BC0700207D
:10145000CA060020C8060020019800194078A41C84
:101460000007000F7149087004F09EF87049086089
:1014700001207049087004204D496F4A127889187C
:10148000614A88546C480078401C6B4908705CE6DF
:1014900001980019477801980019801CFFF7E2FABB
:1014A0000600019800194579802064490870644855
:1014B0000078401EFFB2B84250DA002E0AD1380040
:1014C000C0B2FFF795FA5D480078032101435B48FD
:1014D000017049E02807000F6946F0222A400A708F
:1014E000C0B2FEF72AFE00280CD068460078FEF74E
:1014F00024FE002806D051480078022101434F48BD
:10150000017005E04D480078FD2101404B48017015
:101510000023DB434B482907090F8840494A0F2124
:101520008C462900C9B209096546691A0A41024078
:1015300092B231003800C0B2FFF702FA002806D09C
:101540003E480078012101433C4801700CE03B48D3
:101550000078FE2101403948017005E037480078E5
:10156000FE21014035480170A41D07201049324A70
:1015700012788918244A88542F480078401C2E4934
:1015800008702E4800788007800F09492A4A12788F
:1015900089181D4A885428480078401C264908703C
:1015A000D3E500BF12060020000000200406002042
:1015B000180500200198001940780007000FC0B2FC
:1015C000002800D10120401E1F49087001201F493A
:1015D0000870A41C08201E49174A127889180A4A64
:1015E000885415480078401C134908700820184991
:1015F0000C4A127889180C4A88540A480078401C12
:1016000008490870A1E5F7BDA5020000C906002041
:10161000C7060020D406002099070020CE0600202F
:10162000D00600203D080020260300000706002009
:1016300008060020CC060020BC070020CD060020B4
:10164000C6080020FFFF0000A0070020A907002017
:1016500018050020F0B587B0AE4D28786946E02225
:1016600002400A72C6490F780C2F09DB800707D1A8
:101670006846007A602808D06846007AA02804D01E
:101680000020BF490870002042E1687905902800D9
:10169000401CFEF771FD00902800801DFEF766FDDE
:1016A000060005980007000F0490059820210840C7
:1016B00040110690049C08343F1F039705981021A1
:1016C0000840954908700098944909688842D7D124
:1016D0000398A042D4DB0027FF430398844201DA39
:1016E0002F5D641C039801900095012332008B4804
:1016F00001688B48FEF795FD002803D1142003F004
:101700002AF8BDE787480068864211D285480068FC
:10171000401E864203D16846007AA0281BD082482A
:1017200080490968401A80198049884213D3A7E785
:101730007C480068301A7D498842A1D23000401CA4
:10174000784908607748006880214902884202D3BE
:101750000020744908606846007AA02803D1202040
:101760008849087002E000208649087085480078A2
:10177000002802D10598C0060FD59A48008810218C
:1017800001439848018098480078022805D195487F
:1017900000889649014093480180002094490870D0
:1017A00093480078934908709348002140567F2160
:1017B000C943884203D03F20C0438F4908708F48F7
:1017C0000C214156403900918C48C089FEF78BFEB0
:1017D0000099081A1F21C943884203DAE02095497D
:1017E000087007E0202803DB1F209249087001E001
:1017F00090490870280008300290002F13D40398F5
:10180000001B01280FDB012F01DA454800E08A4860
:101810000399091B019129190091012332003F49C5
:101820000968FEF76FFD002084490870002F0DD174
:101830000398001B012809DB0498012800DB1FE73F
:1018400028190399091BFFF76BFC0CE004989449D5
:101850000870049A0299934D280001F003FC049942
:101860000298FFF75DFC9048007810280FDB5D4878
:101870000088102101435B4801805B480078022802
:1018800005D1584800885949014056480180874889
:101890000078012817D10698002801D0802000E0A8
:1018A0004020934909780843914908700698002818
:1018B00012D000208F49087000207C490870002059
:1018C0008D49087008E000208A4908700020774997
:1018D0000870002088490870002F0BD584480078D4
:1018E0002021014382480170974804700020244958
:1018F00008700CE07E480078102101437C4801709C
:101900002000914908700398001B1D4908700120B0
:1019100007B0F0BDEC060020A8070020B8060020A4
:1019200096060020BC060020FFFF000001400000DA
:1019300080B502206E49087084480078FEF7EBFB02
:101940002E49C881824800682C49886000200C49D3
:1019500008702548007802280DD122480078C00779
:1019600009D56348007808210143614801700320CC
:1019700003F0DAFD02E0022003F0D6FD01BD000015
:10198000EB060020C406002000B5724A1268121847
:10199000103A704B5A60C9B2072903D114206D491F
:1019A00008741DE0C9B2022903DA062069490874E7
:1019B00016E0C9B2062910D1664A12681018664AA4
:1019C000C9B204235943515802225143401A614974
:1019D000486010205F49087402E008205D490874DF
:1019E00000BD00001006002098070020FEFF000048
:1019F00016060020C6060020C50600201805002097
:101A000010B50C0051490978FFF7BEFF5348007824
:101A1000022807D122004F4841684139504803F05D
:101A200002FE06E022004B4841684139CF4803F0EE
:101A3000FAFD10BDC7060020A60600203D080020C4
:101A400010B5040001202A49087046480078FEF7C6
:101A500062FB4049C88101213E48C089FEF74BFB2B
:101A60003C49C881404800683A49886001213948AA
:101A7000C089FEF740FB3749C88100203B49087008
:101A80003B48046035480078022805D1CA480088E0
:101A900038490140C8480180022003F045FD10BDCF
:101AA000AC070020AD070020BC0700201F06002067
:101AB00010B50C002749497C2F4A1278891A294A07
:101AC000117028490978082902DB0021254A117084
:101AD00020498968244A11601E49497CFFF754FF58
:101AE00022001C4841684139A04803F09CFD10BD0C
:101AF000E9060020E80600202006002000B5154871
:101B0000007B4C38134908731248407B000611D5FE
:101B100010480D214056C143491C08008010800622
:101B2000800E0C4948730B480D214056414209482C
:101B3000417308E007480D21405640B280108006EE
:101B4000800E0449487300BDEA060020CE0600203E
:101B5000D006002018050020E8E2000898070020C1
:101B60008C0700209A0700209C070020EB0600202D
:101B7000A4070020FEFF00009907002080B5082080
:101B8000FFF72EFA00F0FAFE01BD70B59348007819
:101B9000012805D192480078002801D103F02FFFD9
:101BA00085480078000601D403F029FF8C480078AE
:101BB000002834D180480078400719D47E48007846
:101BC000800601D403F01BFF7B4800888549014053
:101BD00079480180844800780A2804DA824800782D
:101BE000401C814908700920FFF7FAF90120BBE089
:101BF000714800888A4901406F480180FFF79CF9CD
:101C00000500E80701D5874C00E0874C03F0CCFCC9
:101C100022004119554803F006FD0120A4E0834845
:101C200005786F4804788248E4B20019E821490039
:101C30004018FEF7A1FAE4B2112C02D0E4B2212C34
:101C400004D1EDB2E3202840202806D06348007874
:101C5000C00701D5002087E0ACE7E4B2611E7548FB
:101C6000FEF743FBE4B2211F7048FEF727FB002874
:101C7000ECD07148FEF780FA704908607048FEF7B2
:101C80007BFA0002000A6F4908600020FEF740FD61
:101C90006D48007805072D0F6B480078C0B2000929
:101CA0004607760F2800C0B2FEF747FA002809D091
:101CB0003000C0B2FFF72BFA002803D0944806701A
:101CC00094480570944800780007000FC0B20028BF
:101CD00000D10120401E91490870E4B2122C19DB9A
:101CE0000D24032513E05248E4B20019EA2149000B
:101CF0004018FEF7B7FE002807D00023DB43002280
:101D000001002800C0B2FEF71BFE6D1CE41CEDB202
:101D1000082DE8DB924B934A464993480088401EC1
:101D200080B2FEF725FB244800782421084201D127
:101D300003F065FE20480078800607D52A48017820
:101D40008A480078FEF705FA884908701A48008822
:101D50008749014018480180FFF749F9FFF7CEFE97
:101D60000620FFF73DF9012070BD00002C05002082
:101D700080B51B480078002805D10020BE490870B6
:101D8000102002F0E8FCFFF700FF01BD80B57948A4
:101D9000A5490860FFF7CCFD01BD80B5104800786B
:101DA000002803D0FFF7F1FE002804D1B349C0207A
:101DB0008002FFF725FE01BD1006002080B5BD485A
:101DC000FFF73EFE01BD80B5052002F0C4FCBA4914
:101DD000A0208002FFF76CFE01BD0000E906002094
:101DE000EB0600205FFF00001606002080B58F483C
:101DF00003F0EDFB00208C49086000208C4908703E
:101E000000F026FB102002F0A6FC8A480078022889
:101E100005D1AA480078C00701D500F033F901BD0B
:101E20007FFF00007D1B0008D90F0008EC06002092
:101E300018050020ED060020F3060020B80600205B
:101E4000F00600200C060020F706002080B5784838
:101E50000078002812D10020874908707548007862
:101E6000022806D18649714803F0C8FB00F00AF940
:101E700003E08349924803F0C1FB47E06D480078D6
:101E8000022808D1694803F0A2FB8C480088802111
:101E900001438A48018000F0DBFA002816D10020B7
:101EA000754908706348007802280AD18348007891
:101EB000C00703D472495D4803F0A0FB00F0E2F8CC
:101EC00003E06F497E4803F099FB1FE06A48007801
:101ED000400610D579480088802101437748018069
:101EE0006749774803F08AFB5248007802280DD1F1
:101EF00000F0C8F80AE04F480078022806D16F4881
:101F000000789021084201D100F0BCF801BD00002A
:101F100099070020CE060020F8060020A007002028
:101F200080B566480088674901406448018066487A
:101F30003D4908603F480078022802D1002003F0A4
:101F4000F3FAFFF7F5FC01BD80B5002003F0ECFAD1
:101F5000042003F0E9FA4A49594803F04FFB01BD58
:101F6000A6060020960600209406002014060020F5
:101F700059FD0000711D000880B5514803F027FB92
:101F80002B480078002803D000F062FA002811D115
:101F90004E494F480078802212025043802252025C
:101FA0008018FFF72DFD23480078022801D100F0AA
:101FB00069F819E03048007840060AD53F480088A3
:101FC000802101433D4801802D493D4803F016FB27
:101FD0000AE018480078022806D138480078902195
:101FE000084201D100F04EF801BD10B5114800784B
:101FF000022802D1002003F097FA3648FFF720FDAF
:102000000220FEF7FEFA344A34490968304B1B7847
:10201000802424026343C9180818C02149024118CA
:10202000274803F000FB10BDA40700208C07002008
:10203000EB0600209807002080B52048008880210A
:1020400001431E48018000200B4908700A2002F05D
:1020500082FB23491E4800788022120250438022CE
:1020600012028018FFF724FDBA480078022801D137
:1020700000F008F801BD0000E90600208D1D0008F1
:10208000ED1D000880B5FEF7B3F9002811D0154802
:10209000007807280DD0002003F046FA0748008892
:1020A00001210143054801800748AB490860FFF75B
:1020B0003FFC01BD9B1D0008BD1D0008100600204F
:1020C0002C050020FEFF00004D1E0008211F000807
:1020D000A0070020791F0008491F000818050020EC
:1020E000EB1F0008CE060020F0B583B089480078C9
:1020F00018210140102901D0012400E00024E4B29D
:10210000002C02D09548067800E000260825944867
:10211000007800280ED002209249934A127889183C
:10212000924A885490480078401C8F4908700020DB
:102130008B4908708C48007800282AD08A4800789B
:10214000102811DA88480278894986484019EA231C
:102150005B00C718380000F085FF834800782D1811
:102160000020814908702AE000209D4908707E48BF
:1021700002787F499B4C200000F074FF7A48007879
:102180007649087075480678002077490870012460
:1021900015E095480078002811D093480078102861
:1021A0000DDA9148027891496E484019EA235B00A4
:1021B000C718380000F056FF8B4800782D188C485F
:1021C000007800280AD08B4800214056002802D50C
:1021D000002088490870002085490870E4B2002C6E
:1021E00003D0F6B23000401D00E0042029000F1893
:1021F000FFB2812F02DB00242F003F1D40207E49CB
:1022000008707C4800214056002801D4402000E09E
:1022100000207A4909787A4A12780A431043290043
:102220000839014377480170774801687748FDF71E
:10223000BFFF77480078002804D176480068401C2A
:102240007449086073480068411E89B27248FDF7FE
:10225000A9FF6A48007800280ED07048007800284E
:102260000AD06B4800786D490978491E884206D12A
:1022700000206249087002E0002060490870E4B262
:10228000002C36D066480078002809D080205A49B2
:1022900008705F480078002802D101205C4908706E
:1022A0004F4800782F494919EA2252008854F6B263
:1022B00032004C492B484019FF23D633C418200064
:1022C00000F0D0FE46480078002801D1554800E0D3
:1022D0005548F6B2019623494919FF22D63289188A
:1022E000009100234B490A68521E47490968FEF7CE
:1022F00009F8FFB2381F01903F480090002345487D
:102300000268521E404801684648FDF7ABFF474847
:102310000770F7BD1006002010B5374C2070200064
:10232000401C02F000FA2000093002F006FA404892
:10233000018820001130FDF735FF13212000FDF743
:10234000ACFF17203949087039480088401C3849CB
:10235000088010BD98070020A40700202006002058
:10236000AB07002018050020BC070020A5020000D4
:10237000BD07002080B500F001FA01BD80B5FEF771
:1023800037F800282AD12B4800789021084201D044
:1023900003F035FB00202849087000202749087009
:1023A0000020274908702348008826490140214819
:1023B000018000201A4908701549087022490870E8
:1023C000FEF790FD1B480088042101431948018055
:1023D0001E49CC4803F012F9012000E0002002BDA4
:1023E0001E060020210600203D0800203E08002097
:1023F000C6060020C5060020EC060020C40600200A
:10240000CA060020F1060020B8060020ED060020D4
:10241000E8060020C0060020F20600201206002078
:102420001F06002096060020A6060020EB060020CE
:1024300094060020100600200706002099070020BF
:10244000A0070020DEE70000160600207523000824
:1024500080B5AD48007800063AD5AC480078002831
:1024600003D0B8480078400632D5A9480078002843
:102470002ED1A8480078A8490978491E884227DA51
:102480000020B1490860A3480078401CA1490870A9
:102490000220FEF7B6F8AD490978802212025143B6
:1024A0000818C02149024118A9480068FEF7D0F871
:1024B00095480088A74901409348018092480088C8
:1024C000082101439048018000F058F9012002BD25
:1024D0008D480078000601D403F091FA8B4800780B
:1024E000002804D097480078400600D4FAE08948D4
:1024F000007800285CD086480078012858D18548AB
:10250000007895490978884244D200208E490860B5
:1025100080480078401C7F4908707E48007802217E
:1025200002F0D8FB012915D17A480078022811DB86
:102530008A480078FDF765FF00280BD10121874804
:102540000078FDF706FE7F22D2430100C9B20220C7
:10255000FEF7BCF80220FEF754F87C490978802287
:10256000120251430818C0214902411878480068F6
:10257000FEF76EF8644800887649014062480180A1
:1025800061480088082101435F48018000F0F6F8A7
:1025900001209CE760206B49087071480078022890
:1025A00037D159480088012101435748018030E064
:1025B0006C48007810281FD10220FEF722F86349EA
:1025C00009788022120251430818C021490241189B
:1025D0005F480068FEF73CF84B4800885D490140C1
:1025E000494801804848008810210143464801803D
:1025F00000F0C4F801206AE72020524908705848CA
:102600000078022805D140480088012101433E4856
:1026100001805548002140567F21C943884204D09B
:1026200051480078401C504908704C480078FDF72C
:10263000E8FE002803D07F20C0434B4908704A4879
:1026400000214056002806D12F480088C00402D43B
:1026500000204549087000204449087000202B499B
:1026600008702A4800784249087027480088414984
:1026700001402548018033480078400709D02248AE
:102680000088C00405D5204800883B4901401E4809
:10269000018000F073F834480021405620281FDBE9
:1026A0002E480078FDF740FD7F22D2430100C9B2D9
:1026B0000320FEF70BF829480078FDF7A2FE00285A
:1026C00003D100202849087003E07F20C043264939
:1026D00008700D4800888021490101430A480180A3
:1026E0000120F4E6FEF7B6FF002801D10020EEE657
:1026F000002015490860FFF701FA0A2002F02BF8C4
:10270000B3E700002C05002010060020EB06002097
:102710001F060020E80600201206002080B593481E
:1027200000881449014091480180914802F04FFF10
:10273000B94802F04CFF002002F0F6FE112002F032
:102740000AF801BDE9060020A4070020A007002028
:10275000180500207EFF0000C40800201406002099
:1027600098070020A8070020C5060020BC0700200D
:10277000EA06002077FF0000FFEF0000F8B57B4875
:102780000078C121084200D0CEE002F00DFF070022
:1027900000200024754800783C21084200D1C8E0A0
:1027A000724800782421084201D0012500E000256C
:1027B0006E48008800051BD500213800FEF764FA3A
:1027C000964908600400E01B6A49884209D16748BD
:1027D00000886949014065480180122001F0BBFF73
:1027E000A2E062480088814901406048018001E020
:1027F0008A4804687E480078002803D15B48008836
:10280000C00506D57B480068201A002801D5794804
:1028100004688248824909780422514340188C3068
:1028200000788007800FE11B4139002908D47B49DB
:10283000C0B22422504308182C300078002866D0FB
:102840003C0078480678EDB2002D14D04748007857
:10285000800608D5744801783000C0B2FDF779FCD5
:102860000600C02000E00020C0B2FFF755FD6F4811
:102870006F49086004E0FFF737FC6E486C49086058
:102880003000C0B2FDF741FC6B49097880B2FDF71A
:1028900024FC6249C881614846743448008867490D
:1028A0000140882000010843304908802000FEF7DD
:1028B00095F974480078022802D1002002F034FE15
:1028C000EDB2002D07D0704AA020C0023918284868
:1028D00002F0A9FE06E06C4A8020C00239182448A4
:1028E00002F0A1FE69480068002802D0674800682D
:1028F0008047012002F018FE654801784748C089EA
:10290000FDF70AFE38182030444908600CE01748EB
:102910000078800709D4132001F01DFF5D4A413C77
:102920002100134802F07FFEF1BD002CF6D1641C9B
:10293000F4E70E4800788007F0D4F5E700B5C0B2A0
:10294000002803D08020AB49087002E00020A9498C
:10295000087000BD80B5AA4A10700A0052B201008A
:10296000C9B20020FDF7B2FE01BD00001006002034
:102970002C05002000005046E7FF000010B50020A5
:1029800002F0D2FD664802F022FE234802F01FFE4C
:1029900000207949087000207849087000207849A3
:1029A000087000207749086002F004FDC0B20402FC
:1029B00002F000FD0443754804800020724908803D
:1029C00000201D490870724872490860032072494E
:1029D0000870FF20714908700020714908700020BC
:1029E000AB4908700020FDF793FE10BDFFF7000013
:1029F00007060020080600204020634908800120C7
:102A000080490870002082490880002083490870AE
:102A100080207849087070478C0700201805002036
:102A2000060600201406002016060020C71D000818
:102A3000A40700203920000815060020EFFE000042
:102A400080B510480078022805D14F480088914988
:102A500001404D4801804C4800888F4901404A4858
:102A600001804948008808210143474801804648C1
:102A70000078400702D4002040490870FFF77EFE2E
:102A800001BD0000980700201D270008C008002095
:102A9000EB060020D90F0008F8B506000F0014005F
:102AA0001D00FDF7A5FC002802D10220C04329E04B
:102AB0009B480078072809DA732039490978401AB9
:102AC000E4B2A0420CD20120C0431BE032203449C2
:102AD0000978401AE4B2A04202DA0120C04311E0B2
:102AE000002F06D0E4B222003900944F380000F0E5
:102AF000B9FA234805709248067049480470FFF7F8
:102B00009FFF0020F2BD80B5FDF772FC002805D0C4
:102B10000023002200210120FFF7BEFF01BD0000BD
:102B20002C05002038B50C0011001D00934A1060E0
:102B300014480460002904D01022914C200000F0B9
:102B400091FA002D05D0102229008E4C200000F0B3
:102B500089FA0020FDF7DCFD0B4800888A49014016
:102B6000094801800848008880210901014306487E
:102B70000180FEF73CFA31BDBE080020E8060020C7
:102B80001F060020B8060020100600209406002032
:102B900008E6D333E4060020D8060020D90600203A
:102BA000BC07002080B579490978C0B281421CD0A9
:102BB00076490870C0B2012809D1754800883549A6
:102BC000014073480180002002F0AEFC0DE0C0B26D
:102BD00002280AD1FDF70CFC002806D002F0E4FC24
:102BE000C01C02F0DBFEFFF74DFA01BD674800781C
:102BF00070470000CA06002001206649087070472F
:102C0000AA070020C508002001490880704700007D
:102C1000C80800200149087070470000CA08002059
:102C20002006002010B502F0BFFC040001212000A6
:102C3000FEF72AF8011B584A914202D10120C043F5
:102C400024E05649564A127804235A4389188C3195
:102C500009788907890F021B413A002A08D44F4A94
:102C6000C9B22423594351182C310978002901D0C5
:102C700000200BE0001BC117FA229200002302F093
:102C80006DFF80221202002302F081FF10BD0000C0
:102C90003D0800207EFF00007FFF000038B50500E2
:102CA000002400E0641CE4B2102C0FDA3D480088D8
:102CB0000121A1400842F5D02100C9B22800C0B2CC
:102CC000FDF7BDFB0128EDD1012000E0002032BD61
:102CD00010B59CB00C006A460021C0B200F064F848
:102CE000002000E0401C69460978C0B288420CD23E
:102CF0006946C0B202224243891844310988012240
:102D0000A2401142EED0012000E000201CB010BD16
:102D1000974908607047401C96490870704700004A
:102D20001406002080B594490978C0B2884203D0C7
:102D300091490870FFF722FE01BD00002106002026
:102D40001E06002000B58D49411A8D4A914201D2DC
:102D5000022011E08B49411A8B4A914209D38B49D9
:102D6000411A8B4A914204D38A49401A8A498842BF
:102D700001D2012000E0002000BD00000C06002070
:102D800096060020A606002059FD000098070020A6
:102D900010060020AB070020000050461805002058
:102DA000060600200406002010B5C0B2012809D094
:102DB000032823D004283DD0052870D0812800D1D5
:102DC0009DE0B8E003201070744850607448906033
:102DD0007448D060002007E03F21C0B20223434383
:102DE000D31844331980401C1178C0B28842F3D301
:102DF0000020642150546C489066B7E003201070A6
:102E00006A4850606A4890606A48D060002007E0D5
:102E10003F21C0B202234343D31844331980401CDE
:102E20001178C0B28842F3D3042064215054624820
:102E300090669BE008201070564850605F48906094
:102E40005F48D0605F4810615F4850615F489061A3
:102E50005F48D0615F481062002007E03F23C0B2A6
:102E600002244443141944342380401C1378C0B214
:102E70009842F3D3C9B200290BD10A2010705648EA
:102E80005062564890624020542150528020562172
:102E900050520020642150545148906666E008204A
:102EA000107050485060504890605048D060504872
:102EB000106150485061504890615048D06150486E
:102EC0001062002007E03F23C0B2022444431419DB
:102ED00044342380401C1378C0B29842F3D3C9B263
:102EE000002906D10920107046485062C0205421A4
:102EF00050520020642150544348906636E003202D
:102F0000107026485060264890602648D060002007
:102F100007E03F21C0B202234343D3184433198052
:102F2000401C1178C0B28842F3D30320642150546E
:102F30001D4890661AE00320107018485060184829
:102F400090601848D060002007E03F21C0B2022303
:102F50004343D31844331980401C1178C0B28842CF
:102F6000F3D30020642150540F48906610BD000038
:102F7000C0080020C4080020C5080020C0FDD133CF
:102F800091D0030000A1BC33C1270900A091D63322
:102F9000E193040040DA8E33C1C62D00A027BE3372
:102FA000E034C1332042C43308E6D33364CE8F33D8
:102FB00084FE9433E8E19D33F080A63380E79133BB
:102FC000C0F49433C029A1330037A4334044A7335D
:102FD0008051AA33C05EAD3300029833E0959C3334
:102FE000006CB033E07D0B37208B0E3760981137C3
:102FF000A0A51437E0B2173720C01A3760CD1D37AF
:10300000A0DA2037C0111037A03BFC361206130A95
:103010001A43130C1A4300BF094205D0830705D099
:103020000270401C491EF9D170470000130030B4F3
:1030300014001500103902D310393CC0FCD24907E6
:1030400000D30CC000D504C0890002D30280801CCC
:10305000002900D5027030BC704700000022DBE779
:103060000022E3E7124207D08B0706D00B78491CF9
:103070000370401C521EF7D87047830706D00B78A8
:10308000491C0370401C521EF9D1704770B4103AAD
:1030900003D378C9103A78C0FBD2530701D318C9BB
:1030A00018C001D508C908C0D20704D30B88038013
:1030B000891C801C002A01D50B78037070BC7047F6
:1030C00070B5002421E02F480421614340580006D8
:1030D0002C49042262438958FF2212020A4011023D
:1030E00001432848042262438058000AFF2212024A
:1030F00002400A432348042161434058000E104314
:103100002049042262438850641C042CDBDB1D48E8
:10311000C56833E02000042101F0DCFD002920D146
:1031200019482900090CC9B2405C000616492A005A
:10313000120AD2B2895C0904414013482A00D2B273
:10314000805C0002484010492A00120E8E5C464006
:10315000201F042101F0BEFD042148430B490D58F6
:1031600075400848042161434018103800686840E1
:1031700005000448042161434550641C2C2CC9DB24
:1031800070BD0000380B0020C8DE000874E20008A3
:10319000F7B586B0FFF794FF6846007E000709D5B3
:1031A00000206549C8606449886063494860624995
:1031B0000860A8E06048006800065F490968FF22CF
:1031C00012020A40110201435B480068000AFF2214
:1031D000120202400A4358480068000E1043564944
:1031E000086055484068000653494968FF221202AA
:1031F0000A401102014350484068000AFF221202AF
:1032000002400A434C484068000E10434A49486057
:1032100049488068000648498968FF2212020A402E
:103220001102014344488068000AFF221202024052
:103230000A4341488068000E10433F4988603E4879
:10324000C06800063C49C968FF2212020A40110208
:1032500001433948C068000AFF22120202400A43B3
:103260003548C068000E10433349C8604BE0040085
:10327000240E079D2C700400240C079D6C70040024
:10328000240A079DAC70079CE0700800000E079CA4
:1032900020710800000C079C60710800000A079C60
:1032A000A0710798C1711000000E079908721000F4
:1032B000000C079948721000000A07998872079855
:1032C000C2721800000E079908731800000C0799C5
:1032D00048731800000A079988730798C3736846F3
:1032E000007E0A210140022907D00798103007907C
:1032F00068466946098C1039018468466946097E2A
:1033000008220A4302766846008C40B2012800DA9F
:1033100053E36C46247E640705D46C46247E0A265B
:103320002640022E0AD10448006803494968024A2F
:103330009268014BDB684DE0581100206C46247EFA
:10334000A40700D407E36C46248C112C00DB02E3B5
:1033500000200300020001006C46248C102C01D1D7
:10336000012500E002256C466E46367E2D01354370
:1033700025762FE000262F0235003D43A607B60F25
:10338000032E03D1080011001A002B00641C102C1E
:103390000CD26E46368CB44202D2079E365DEAE706
:1033A0006E46368CB442E5D18026E4E76C46247E36
:1033B000A4070FD50400CB48006860400C00C94941
:1033C000496861401400C74A926862401C00C54BBE
:1033D000DB686340ED4C0394039C80340494040048
:1033E0000398006860400C0003994968614014002C
:1033F000039A926862401C00039BDB686340039C55
:103400006569039CA4690294039CE4690194039C8C
:103410002469EE4EB4460700FFB2042677436646A1
:10342000F6596E403500029F0097E94EB4460700FA
:103430003F0AFFB2042677436646F659009F7E4056
:103440000296019F0097E34EB44607003F0CFFB27F
:10345000042677436646F659009F7E400196DE4E6D
:10346000000E04277843305860400400029FD7487C
:1034700084460E00F6B204204643604680597840E8
:103480000290019FD24884460E00360AF6B204200C
:1034900046436046805978400190CE480E00360C75
:1034A000F6B204277E43805960400400CA48090EE2
:1034B000042671434058684005000198C34916002E
:1034C000F6B204277E43895941400191C04811005A
:1034D000090AC9B204267143405860400400BD483F
:1034E0001100090CC9B20426714340586840050018
:1034F0000298B949120E042672438958414002913C
:10350000B2481900C9B20422514340586040040037
:10351000AF481900090AC9B2042251434058684013
:1035200005000298AB491A00120CD2B2042672436D
:103530008958414002910198A7491A00120E0423AC
:103540005A438958414001910398416A0398826A1D
:103550000398C36A0398006A9C4EB4462700FFB2E2
:10356000042677436646F6594E403100984EB446DD
:1035700027003F0AFFB2042677436646F6595640B5
:103580003200944EB44627003F0CFFB20426774326
:103590006646F6595E4033008F4E240E04277C4366
:1035A000345944402000894C2E00F6B204277E4353
:1035B000A45954402200864C2E00360AF6B2042745
:1035C0007E43A4595C402300824C2E00360CF6B298
:1035D00004277E43A459444020007F4C2D0E04262E
:1035E000754364594C402100784C029DEDB204268D
:1035F000754364595C402300754C029D2D0AEDB261
:1036000004267543645944402000724C029D2D0CE1
:10361000EDB20426754364594C4021006E4C029D66
:103620002D0E04267543645954402200674C019DB9
:10363000EDB204267543645944402000644C019D5A
:103640002D0AEDB20426754364594C402100614CAB
:10365000019D2D0CEDB2042675436459544022009F
:103660005D4C019D2D0E0426754364595C4023007A
:10367000039C20340394039C049DAC4200D2BEE61C
:10368000039C6569039CA4690294039CE46901940A
:10369000039C24694D4EB4460700FFB204267743CD
:1036A0006646F6596E403500029F0097484EB44674
:1036B00007003F0AFFB2042677436646F659009F8B
:1036C0007E400296019F0097424EB44607003F0C91
:1036D000FFB2042677436646F659009F7E40019666
:1036E0003D4E01E058110020000E04277843305869
:1036F00060400400029F354884460E00F6B2042064
:1037000046436046805978400290019F3048844685
:103710000E00360AF6B204204643604680597840CF
:1037200001902C480E00360CF6B204277E438059D7
:10373000604004002848090E042671434058684040
:103740000500019821491600F6B204277E438959E5
:10375000414001911E481100090AC9B20426714373
:103760004058604004001B481100090CC9B20426EF
:10377000714340586840050002981749120E04260C
:103780007243895841400291104801E0380B0020F3
:103790001900C9B2042251434058604004000C484B
:1037A0001900090AC9B20422514340586840050073
:1037B000029808491A00120CD2B2042672438958A2
:1037C000414002910198044908E000BFC8D50008B3
:1037D000C8D10008C8CD0008C8C900081A00120ED8
:1037E00004235A438958414001910398006A75495E
:1037F0002200120E895C09064140080071492A0026
:10380000120CD2B2895C0904414008006D49029A49
:10381000120AD2B2895C09024140080002006948DC
:103820000199C9B2405C50400399496A654A2B002E
:103830001B0ED25C12064A401100624A029B1B0C0E
:10384000DBB2D25C12044A4011005E4A019B1B0AA3
:10385000DBB2D25C12024A4011000B00594922002F
:10386000D2B2895C5940039A926A564B029E360E38
:103870009B5D1B0653401A00524B019E360CF6B25C
:103880009B5D1B0453401A004E4B2600360AF6B2CD
:103890009B5D1B0253401A004A4B2E00F6B29B5D03
:1038A00053401A00039BDB6A464E019F3F0EF65DB4
:1038B00036065E403300434E240CE4B2345D2404EB
:1038C0005C4023003F4C2D0AEDB2645D24025C4055
:1038D00023001D003B4B029CE4B21B5D6B406C4619
:1038E000247EA40742D56C46247E2411A507AD0F83
:1038F000002D32D00400E40F46000800C00F304312
:103900004E001100C90F314356001A00D20F324346
:103910005B00002C02D01C00872363406D1E002D2D
:10392000E8D1294C24684440274E3460264C646812
:103930004C40254E7460244CA4685440224EB46020
:10394000214CE4685C40204EF4606C466E46367E46
:10395000CF2737402776002419E51B4C20601A48F2
:103960004160194882601848C360B8E46C46247E00
:10397000640700D47BE46C46248C112C01DB1024FA
:1039800001E06C46248C00250FE0079E775D060061
:10399000360E7E40079F7E550002AE07B60F032EFF
:1039A00002D1080011001A006D1CA542EDD3064893
:1039B000C068401C0449C86091E40348006809B02D
:1039C000F0BD0000C8DE00085811002003208C491B
:1039D00008700E208B490870C3208B4908700020A6
:1039E0008A49087007208A490870012089490870AF
:1039F0000020B349C864704730B585B004000D009D
:103A0000CD20694608732820694648730C21684612
:103A100002F0EEF9362069468873B5206946C8730E
:103A2000002005E0215C6A46125C4A402254401C9A
:103A3000A842F7DB05B030BD80B51021A148FFF7E3
:103A4000DBFF1021A048FFF7D7FF08219C48FFF7B4
:103A5000D3FF1021B948FFF7CFFF01BD10B50024F7
:103A6000FFF7EAFF0120A44908705423944A01217A
:103A7000022002F0F9F9002800D1012402F0BBFB7A
:103A800000280AD054238E4A0221022002F0ECF9C9
:103A9000002801D1012400E00024FFF7CDFF200021
:103AA000C0B210BD10B55423854A0100C9B202202E
:103AB00002F0C8F9040090480078002801D0FFF710
:103AC000BBFFE4B2002C03D0FFF780FF002007E02B
:103AD00050480078002802D101204E49087001208A
:103AE00010BD00B549480078002801D0012000E051
:103AF0000020C0B200BD00B5C0B200280AD0C9B2D3
:103B0000002903D00220B84908700DE00120B64911
:103B1000087009E0C9B2002903D00320B249087037
:103B200002E00020B049087000BD80B5C9B2C0B243
:103B3000FFF7E1FFFFF792FF01BD00B5AA4800784B
:103B4000802801D1002001E0A748007800BD80B5A1
:103B5000FFF7F3FFC0B2002802D0C0B2032801D1A2
:103B6000002000E0012002BD10B5040026480470CA
:103B70002000C007C00FFEF7E1FE04200440200033
:103B8000C0B28008C0B2002803D00220FFF70AF8B4
:103B900002E00120FFF706F810BD38B5184800789C
:103BA00018490D78C0B2082804DA290049B2C0B219
:103BB000FEF7D0FE14480078800713D5FA22920051
:103BC000290049B20020FCF731FE6422290049B2E5
:103BD0000120FCF72BFE0A22290049B20220FCF743
:103BE00025FE0CE0002407E00022290049B2200055
:103BF000C0B2FCF71BFE641CE4B2032CF4DB31BD45
:103C000008090020090900200A0900200B090020EA
:103C1000150900201609002010B50400934800780B
:103C200000284BD1BC4800786179884207D02178C0
:103C30006079FFF74DF8002808D107203FE0207891
:103C4000FFF72CF8002801D1072038E020788849B8
:103C500008706078A0490870A078FFF785FFE078C9
:103C60009E490870E078002803D1802002F0C1FB53
:103C700006E07E480078002802D1802002F0C8FBD0
:103C80002079FF2801D1FE2020712079A3490870F6
:103C90002079FFF740F8A04800786179884207D082
:103CA00060799D4908706079FFF73CF800F060F991
:103CB000FFF773FFFFF7D2FE012000E0002010BDE8
:103CC000CC080020E4080020F408002010B504000F
:103CD000674800782070804800786070A3480078BA
:103CE000A070FFF7FEFEE0708C48007820718A48D3
:103CF0000078607110BD00001C09002000B59B48D1
:103D00000078400601D5012000E0002000BD80B50C
:103D10005649097800290BD10068B749C864B648EC
:103D2000C06C40B2FEF776FFFFF798FE012000E07E
:103D3000002002BDB049C96C01607047D408002062
:103D400010B504000822AC492000FFF78BF910BD24
:103D500010B50822A84C01002000FFF783F910BD20
:103D600010B504000822A5492000FFF77BF910BD1B
:103D700010B50822A14C01002000FFF773F9FFF7EE
:103D80006DFE10BD10B5040010229D492000FFF704
:103D900069F910BD10B51022994C01002000FFF701
:103DA00061F910BD10B50C00FFF7D2FF2000FFF73E
:103DB000F1FFFFF753FE10BD10B50C00FFF7C0FF79
:103DC0002000FFF7DFFF10BD8E4800788E4909788C
:103DD0000902014389B28D480078BF4A1278120265
:103DE0000243100408437047140900200100854A6B
:103DF0001170010089B2090A834A11700100090C8F
:103E0000824A11700100090C89B2090AB24A117084
:103E1000B24908607047B1480068704738B50C0077
:103E20001022AF4D01002800FFF71CF91022AD4D04
:103E300021002800FFF716F931BD38B504000D0048
:103E40001000FFF7D3FF29002000FFF7E7FF31BD87
:103E500038B504000D001022A1492000FFF702F937
:103E60001022A0492800FFF7FDF831BD7809002095
:103E70000809002038B504000D009B480078400672
:103E8000400E99490870FFF762FE002801D1032017
:103E900021E09648007800281CD1002C1AD4EDB2FD
:103EA000022D15D1FEF7A8FE05980499002907D127
:103EB0000090002300220121200000F02DF90AE0EB
:103EC0000090002300220121200000F015F902E0FB
:103ED000042000E0002032BD090900200B09002069
:103EE00080B502F088F900280DD181480078FEF7EE
:103EF000D5FE002804D105207D490870FFF74DFE4E
:103F0000FEF701FE06E0FFF7ECFD002802D080205E
:103F100002F07EFA01BD00001609002015090020FC
:103F200080B5FFF751FF6F4B6D4A01000020FEF78F
:103F3000F9FDFFF732FEFFF7D3FF01BD80B580200A
:103F400069490870FFF7ECFF00210120FFF7EDFD44
:103F500001BD10B58023644C2370FFF76EFFFFF79F
:103F6000DFFF00210120FFF7E0FD10BD0A0900205E
:103F700010B5952100225F4C2000FFF747F8002084
:103F80005A49087000210020FFF7CFFD00F0C5F965
:103F9000FFF7A7FD002802D0802002F039FA10BDFB
:103FA00010B50400504800784006400E4E49087095
:103FB0004E48007800281CD1002C1AD401204B490F
:103FC000087020004849087000210020FFF793FD89
:103FD00000F0A3F9802C04D001210020FFF7A5FDFB
:103FE00003E001210020FFF786FDFEF7C7F901205D
:103FF00000E0002010BD0000CC0800200C090020CB
:10400000D40800200409002005090020060900202A
:10401000F2B5040017001D00334800784006400E3A
:1040200031490870079E00203060FFF790FD00289E
:1040300001D103204FE02D480078032802D1002051
:104040002A49087029480078002843D1264804707E
:10405000FEF7E8FD0021C943884204D1012023492D
:104060000870002037E00121C943884204D10020B4
:104070001E49087007202EE0012802DB3060062070
:1040800029E068460378069A29003800C0B2FEF796
:1040900003FD00280DD115480078032804D1002025
:1040A00012490870052016E001201049087001200F
:1040B00011E00021C943884204D101200B49087056
:1040C000002008E00121C943884201D1022002E01A
:1040D000032000E00020F2BD07090020B806002000
:1040E000E4080020F40800204D0900207809002091
:1040F00008090020E80B00201CB500280AD4049C05
:104100000194DBB2009313000A00D2B20121FFF741
:104110007FFF00E0002016BD1CB500280AD4049CD7
:104120000194DBB2009313000A00D2B20021FFF722
:104130006FFF00E0002016BD10B5714800788006C2
:1041400003D501206F49087002E000206D49087016
:104150006D480078000603D501206C49087002E024
:1041600000206A49087068480078C00609D586486A
:10417000864909784018FF21D431405C8449087091
:1041800002E0FF208249087082480078002819D098
:1041900080480078812811DA7E4802787A487B4985
:1041A00009784018EA2149004118924C2000FEF796
:1041B00059FF784800789049087006E000208E4941
:1041C000087002E000208C4908708C4800780028B4
:1041D00003D001208A49087002E000208849087055
:1041E00088480078002813D08648007810280BDA19
:1041F000844802788449854C2000FEF733FF8148CB
:1042000000788249C87306E000208049C87302E044
:1042100000207E49C87310BD80B57D4800787D4977
:104220000870FFF794FC002805D17B480078401CFB
:104230007849887003E07848007876498870774834
:1042400000787449487001BD00B52F490978C90745
:104250000BD570490978724A117072490978704A11
:10426000517001216E4A117114E0274909788907BC
:1042700010D580216A4A11706B490978684A5170DB
:104280000221674A117120490978090702D50321E3
:10429000634A11713C49097B614A91703A49497BF3
:1042A0005F4AD170C0B2002823D016480078002899
:1042B0000FD05B480079012805D15C480068401C9C
:1042C0005A4908601AE05A480068401C584908607A
:1042D00014E053480079012805D156480068401C75
:1042E000544908600AE054480068401C524908607C
:1042F00004E052480068401C5049086000BD0000BE
:10430000C40600207B0C0020E90600207A0C002067
:1043100080B5802002F06DF801BD80B54848007876
:10432000FEF700FDFEF72AFB4648FEF7F1FC464883
:104330000078FFF719FC45480078FEF7ECFC0020F8
:10434000FEF762FC4248C06C40B2FEF763FCFFF728
:1043500024FCD4480078012802D1FFF7E1FD0EE0EB
:10436000D0480078022807D0CE480078032803D030
:10437000CC480078802802D18020FFF711FE01BDD3
:10438000314800787047000018050020EA06002038
:10439000790C0020EB06002010B50220FFF782FB0D
:1043A0000400FFF75BFB00F097F92000C0B210BDDE
:1043B00000B5BD490978052919DA2549BA4A1278A4
:1043C00008235A438918843108602148B64909787E
:1043D0000822514340188830B34909780170B24827
:1043E00000780100491CB04A1170C0B201E0002001
:1043F000C04300BDF80B0020780C0020A807002067
:104400007C0C0020AC070020AD070020E80B00204A
:104410000606002028120020E806002014060020CE
:10442000DC1100209A070020CE0600208C09002015
:10443000980900208809002094090020A409002080
:1044400016090020114300080A0900201509002060
:10445000CC08002000B50200002089B22C2900DA27
:104460001DE192490968C0B211549049096889B2A6
:10447000090AC0B2131859708C490968090CC0B2F6
:104480001318997089490968090C89B2090AC0B2E0
:104490001318D970001D86490968C0B211548449A7
:1044A000096889B2090AC0B21318597080490968AD
:1044B000090CC0B2131899707D490968090C89B2BA
:1044C000090AC0B21318D970001D7A490968C0B230
:1044D00011547849096889B2090AC0B21318597091
:1044E00074490968090CC0B21318997071490968B8
:1044F000090C89B2090AC0B21318D970001D6E499F
:104500000968C0B211546C49096889B2090AC0B27D
:104510001318597068490968090CC0B213189970CA
:1045200065490968090C89B2090AC0B21318D97023
:10453000001D62490968C0B211546049096889B216
:10454000090AC0B2131859705C490968090CC0B255
:104550001318997059490968090C89B2090AC0B23F
:104560001318D970001D56490968C0B21154544936
:10457000096889B2090AC0B213185970504909680C
:10458000090CC0B2131899704D490968090C89B219
:10459000090AC0B21318D970001D4A490968C0B28F
:1045A00011544849096889B2090AC0B213185970F0
:1045B00044490968090CC0B2131899704149096847
:1045C000090C89B2090AC0B21318D970001D3E49FE
:1045D0000968C0B211543C49096889B2090AC0B2DD
:1045E0001318597038490968090CC0B2131899702A
:1045F00035490968090C89B2090AC0B21318D97083
:10460000001D32490968C0B211543049096889B2A5
:10461000090AC0B2131859702C490968090CC0B2B4
:104620001318997029490968090C89B2090AC0B29E
:104630001318D970001D26490968C0B211542449C5
:10464000096889B2090AC0B213185970204909686B
:10465000090CC0B2131899701D490968090C89B278
:10466000090AC0B21318D970001D1A490968C0B2EE
:1046700011541849096889B2090AC0B2131859704F
:1046800014490968090CC0B21318997011490968D6
:10469000090C89B2090AC0B21218D170001DC0B24B
:1046A00000BD0000140900204C0900207C090020F6
:1046B0008009002084090020880900208C0900203E
:1046C0009009002094090020980900209C090020EE
:1046D000A0090020A409002080B5802001F089FEF7
:1046E000FFF71BFEFFF7FDF9002806D0FFF72FFAB2
:1046F000002802D1802001F08BFE01BD30B50A00F8
:10470000D2B2520800230AE0C45CC9B24D1EED1AB1
:10471000455DC554C9B24D1EED1A44555B1CD2B25D
:104720009342F1DB30BD10B504002000FFF708FB19
:1047300008212000FFF7E2FF10BD10B504002000A3
:10474000FFF70EFB08212000FFF7D8FF10BD80B552
:10475000FFF718FB01BD80B5C0B2052817D00628A9
:1047600027D008283CD009284CD00A285CD0102833
:1047700000D1EEE0112800D102E1122800D10FE1B2
:10478000132800D11CE1142800D121E12FE1984821
:104790000068401C96490860802001F02AFEFFF75F
:1047A0003BFD0220934908700121934801F0C5FFA9
:1047B0001DE10020FFF748FDFFF7EFF9012101207F
:1047C000FFF7B3F901F017FD002802D00020894956
:1047D00008700221884801F0B0FFFFF781FB06E175
:1047E0000020844908708020844908700421824890
:1047F00001F0A3FFFFF775F9002802D0802001F037
:1048000007FEF4E000207B49087080207B49087097
:104810000421794801F091FFFFF763F9002802D0E5
:10482000802001F0F5FDE2E075480078800733D183
:10483000FFF7F2FC802001F0DCFD01206D490870DB
:1048400070480078012813D16F480068401C6E49F9
:1048500008606E4880786E490978491C884202D108
:104860000220644908701021634801F066FF6FE080
:1048700068480068401C6749086064488078664959
:104880000978491E884202DB02205A490870082133
:10489000594801F052FF5BE06048007800284DD095
:1048A000FFF74AFC0120FFF7CFFC5D4800785D4927
:1048B00009780143C9B2002903D15B480078102868
:1048C00003DB01204B4908701EE05848007800289F
:1048D00007D04E488078002803D000204549087052
:1048E00012E044480078022807D0424800780028A7
:1048F00003D044480078002803D100203D490870C7
:1049000002E001203B49087049480079032805D19D
:1049100048480078802101434648017020213648EC
:1049200001F00BFFFFF7DDF8002811D031480078C7
:1049300000280DD1802001F06BFD09E000202D49F9
:104940000870FFF7CEF8002802D0802001F060FD4B
:104950004DE028480078022806D132480078002827
:1049600002D10020234908704021234801F0E5FED0
:10497000FFF7B7F8002802D0802001F049FD36E0AB
:104980009F480068401C9E49086000201949087033
:10499000FFF7A7F8002802D0802001F039FD26E0BB
:1049A00097480068401C9649086003201149087028
:1049B000FFF797F8002802D0802001F029FD16E0CB
:1049C000FFF78FF8002802D0802001F021FD0EE0D3
:1049D0000B480078C00705D58A480068401C894903
:1049E000086004E09E480068401C9D49086001BDC5
:1049F000A0090020780900203009002014090020B7
:104A0000E90600201F06002080090020281200204F
:104A1000150900207C09002012060020EA0600206B
:104A20007B0C00207C0C0020BC0700207A0C0020AE
:104A3000DC1100204D09002070B58A4801F097FE76
:104A40000600002504E000202168896988476D1C64
:104A500085480078854200D3CDE084480821694329
:104A600044188434B0066CD581480078E0284ED1D3
:104A700080480078042818D17F48007C012814D190
:104A80007D48407C012810D17B48807C01280CD1D6
:104A90007948C07C012808D12068C069002814D05A
:104AA00001202168C96988470FE07348007C00280D
:104AB0000BD170480078012807D12068C069002810
:104AC00003D000202168C969884720796B4909789B
:104AD000884206D02079002803D068480078000674
:104AE0002FD52068406900282BD065480078002821
:104AF00006D101226049634823685B69984720E03A
:104B000000225D495F4823685B69984719E0207976
:104B10005A490978884203D058480078000610D5D1
:104B200057480078002806D1012253495548236888
:104B30005B69984705E000224F49524823685B694A
:104B4000984720794D490978884204D04B4800782D
:104B5000000600D47BE7F00709D52068006800282C
:104B600000D174E748482168096888476FE7B007B3
:104B70000CD520684068002800D168E7FFF74BF9A2
:104B80000100404822685268904760E7700708D5E6
:104B900020688068002800D159E720688068804735
:104BA00055E7F00609D52068C068002800D14EE717
:104BB00035482168C968884749E7300709D5206822
:104BC0000069002800D142E72F4821680969884719
:104BD0003DE7700600D43AE720688069002800D1DC
:104BE00035E727480078002800D02CE7012021680D
:104BF000896988472BE71B4801F085FD70BD0000DF
:104C0000840900209009002080B5802001F0F1FB8C
:104C1000202001F0FDFB8020184908700020124977
:104C20000870002016490870012000900F4B174AA9
:104C300017490C4801F02AFD00F0A8FC154801F0C6
:104C4000E0FC154B154A1649164801F0A8FB012057
:104C500000F070FF0120FEF725FFFFF73DFD01BDCD
:104C60009C090020300900204C090020CC080020BD
:104C7000790C0020780C0020E80B00204D09002062
:104C800078090020DC11002028120020394A000891
:104C9000CCE30008635600080D57000805570008CC
:104CA000C956000820090020F446002804D44942CF
:104CB00000F013F8404260474042002905D45FD01D
:104CC00000F00BF8404249426047494200F005F8C5
:104CD0004942604703460B43E6D40022030A8B4255
:104CE0000BD203098B4219D243088B422ED2411AB0
:104CF00000D20146524110467047FF2209023FD0C0
:104D000012068B4205D3121209028B4201D31212F2
:104D1000090203098B4219D300E0090AC3098B4237
:104D200001D3CB01C01A524183098B4201D38B01BD
:104D3000C01A524143098B4201D34B01C01A524160
:104D400003098B4201D30B01C01A5241C3088B42A5
:104D500001D3CB00C01A524183088B4201D38B0090
:104D6000C01A524143088B4201D34B00C01A524132
:104D7000884200D3401A5241CFD2014610467047B4
:104D800008B501F025FD08BD38B505000C00002070
:104D900000F06EFD80202843C0B200F0A2FD20008C
:104DA000C0B200F09EFD012000F062FD31BD10B5E3
:104DB0000400002000F05CFD6006400E00F091FD54
:104DC000002000F08EFD0400012000F051FD2000C5
:104DD000C0B210BD70B504000D001600002000F038
:104DE00047FD80202043C0B200F07BFD002404E09A
:104DF000E4B2285D00F075FD641CE4B2F6B2B44282
:104E0000F6D3012000F034FD70BD70B504000D0034
:104E10001600002000F02CFD6006400E00F061FD41
:104E2000002405E0002000F05CFDE4B22855641C7D
:104E3000E4B2F6B2B442F5D3012000F019FD70BD22
:104E400010B504000120FFF7B2FFF82101400C4328
:104E50002100C9B20120FFF797FF10BD80B5802166
:104E6000C9B20120FFF790FF01BD80B50021C9B292
:104E70000120FFF789FF01BD38B5AE48C089FBF7B7
:104E80001FF90400AB48C089FBF71DF98501A9484B
:104E9000C089FBF71DF9002805D002280BD006D3E6
:104EA00003280CD00EE02800082505430AE028005E
:104EB0001025054306E028001825054302E02800D8
:104EC00020250543E4B2052C02D0E4B2062C08D11B
:104ED0009848C089FBF7F7F8002802D1280001257F
:104EE00005439448C089FBF7FFF8002802D1280049
:104EF000022505438F48C089FBF703F900280BD032
:104F00002800042505438B48C089FBF7FAF8010007
:104F1000C9B22220FFF738FF2900C9B21D20FFF7D0
:104F200033FF2001603004210143C9B21E20FFF786
:104F30002BFF31BD38B57F4880680021C904420B82
:104F40001143C004AB4A002300F040FE04000D00F2
:104F5000DE480021405EC1170019694104000D00C0
:104F60002100090CC9B20620FFF70EFF2000010046
:104F700089B2090AC9B20720FFF706FF2100C9B2AA
:104F80000820FFF701FF31BD80B56A48807CDD490C
:104F90000978401840B20F2801DB0E2003E040B230
:104FA000022800DA0220811EC9B20920FFF7ECFEB8
:104FB00001BD80B510210120FFF7E6FE0120FFF7BB
:104FC000F6FE102801D000F01AFD0120FFF738FF8F
:104FD00002210220FFF7D8FE80210320FFF7D4FE34
:104FE00001210420FFF7D0FE99210520FFF7CCFE18
:104FF00000212520FFF7C8FE05212620FFF7C4FE6B
:1050000012212720FFF7C0FED0213020FFF7BCFE81
:1050100040213120FFF7B8FEC1212820FFF7B4FE60
:1050200094212920FFF7B0FEC1212A20FFF7ACFE12
:10503000FFF780FFFFF7A8FF34214020FFF7A4FE11
:1050400098213520FFF7A0FED8480178491CC9B245
:105050003220FFF799FED54801780020FFF794FE33
:10506000D2480278D2490020FFF7B4FE012000F0B8
:1050700008FC0320FFF7E4FE01BD80B5FFF7EEFE5C
:105080000120FFF794FE000601D400F0B8FC0120D7
:10509000FFF7D6FEFFF7F0FEFFF74CFF0A20FFF701
:1050A00086FEF022024008211143C9B20A20FFF710
:1050B0006BFEFFF769FF34213920FFF765FEF02111
:1050C0004020FFF761FEFF211220FFF75DFEF72170
:1050D0001120FFF759FE00210E20FFF755FE002199
:1050E0000D20FFF751FEB14801782220FFF74CFE5A
:1050F000AE480278AE490020FFF76CFE012000F0B8
:10510000C0FB0320FFF79CFE01BD80B50120FFF727
:105110004EFE400701D000F072FC0648C089FAF745
:10512000CFFF002802D1FFF744FF01E0FFF7A5FF02
:1051300001BD00001805002010B50400FFF78EFE29
:105140000120FFF734FE000601D400F058FC0120D6
:10515000FFF776FEE4B2022C08D10A211D20FFF7EA
:1051600013FE74211E20FFF70FFE03E0FFF784FEFD
:10517000FFF7E0FE23210C20FFF706FE012122208D
:10518000FFF702FE80212320FFF7FEFD3320FFF70B
:105190000EFE40210143C9B23320FFF7F5FD16484A
:1051A000017C1F20FFF7F0FD34213920FFF7ECFDD3
:1051B000C0214020FFF7E8FDFF211220FFF7E4FDAA
:1051C0008948E4B2005DC143C9B21120FFF7DCFD9C
:1051D000002000F056FBE4B2002C07D106484068DE
:1051E00000F0DCFB0620FFF72BFE02E00520FFF7B6
:1051F00027FE10BD0048E8011805002080B5C0B2A8
:10520000002801D000F0FBFBFFF72FFE0120FFF785
:10521000CEFD000601D500F0F2FB0120FFF710FEE5
:10522000FFF788FE23210C20FFF7AEFD1E210D2085
:10523000FFF7AAFD0B211220FFF7A6FD1221132074
:10524000FFF7A2FDAA211F20FFF79EFD12212720B4
:10525000FFF79AFDD8213020FFF796FD402131203D
:10526000FFF792FDC1212820FFF78EFD9421292010
:10527000FFF78AFDC1212A20FFF786FDA348017CA4
:105280002120FFF781FD02210220FFF77DFD802113
:105290000320FFF779FD01210420FFF775FD992117
:1052A0000520FFF771FD38214020FFF76DFDFF213C
:1052B0003220FFF769FD002000F0E3FA93484068D0
:1052C00000F06CFB0520FFF7BBFD01BDC808002006
:1052D00010B504000120FFF76AFD400701D000F07F
:1052E0008EFB8A48C089FAF7EBFE002804D1200023
:1052F000C0B2FFF783FF03E02000C0B2FFF71CFF3E
:1053000010BD0000CA08002070B500F0EFFA0120BF
:1053100000F0D1FA00F048F9203000F03FFB022005
:1053200000F0C9FA00F040F9FF214831401800F0C0
:1053300035FB0020FFF784FD4220FFF738FDC0B2A7
:10534000222801D000F05BFB0220FFF7F5FE0120D0
:10535000FFF72DFD4007400F0528F8D1012418E084
:105360002C20FFF724FD0600F607F60FF6B22C20DE
:10537000FFF71DFD0100C907C90F8E42F0D0644838
:10538000005D40000643624806556D1C082DE7DBB2
:10539000641C102C01DA0025F8E710205C49087025
:1053A0000020FFF74DFD00F0B1FA70BDEB060020C4
:1053B000EC06002010B556480478E4B2002C01D168
:1053C00000F01DFBE4B2102C05D110225049002042
:1053D000FDF7DEFE00244E48E4B2005D641C4C493B
:1053E0000C70C0B210BD0000ECE3000838B500F04E
:1053F000DBF804000120FFF7DAFC00064DD512208F
:10540000FFF7D5FC01073FD4410638D53F48C08996
:10541000FAF759FE002808D13C48C089FAF750FE37
:10542000022148433B49085A241A384844601D2049
:10543000FFF7BDFC400703D52220FFF7B8FC02E0D0
:105440001320FFF7B4FC344908701020FFF7AFFCBD
:105450000100C9B20D20FFF797FC2F4802782F49B1
:105460000020FFF7D2FC1920FFF7A1FC2749487361
:105470001A20FFF79CFC3D382449087304E000061D
:1054800002D5002024490870FF211120FFF77CFC81
:10549000FF211220FFF778FC27E03E20FFF787FC72
:1054A00005003F20FFF783FC01071ED4400713D5FA
:1054B00016484460012218490020FFF7A6FC164850
:1054C000027816490020FFF7A0FC00200F4948731E
:1054D00000200E49087308E0680703D500200E4934
:1054E000087002E000200C4908700020FFF7A8FCBB
:1054F00000F05AF8C01C00F051FAFFF7AFFC084862
:105500000168084800F07AF831BD00001805002055
:1055100088110020B0E30008EB060020EC06002014
:10552000A40700202C05002080B5C0B2002806D0BA
:1055300002280BD007D3042810D00BD310E0002092
:10554000FFF77EFC0CE0FFF7E0FD09E00020FFF72D
:10555000BFFE05E00120FFF7BBFE01E0FFF77EFC88
:1055600001BD30B4012100220368001D002B0BD0C7
:105570000468001D0C4202D04D466D1E6419226065
:10558000241D1B1FF0D0FAE730BC704710B508216E
:105590000022594C2000FDF739FD00F055F9FFF7C6
:1055A000B3FEFDF729FA10BD80B500F0CFF902BDBA
:1055B00000B500E000680268002A06D002688A424E
:1055C000F8D109680160012000E0002000BD10B59D
:1055D000040000F08BF921004748FFF7E9FF00289D
:1055E00005D121004548FFF7E3FF002801D0012045
:1055F00000E00020C0B200F089F910BD38B5050008
:105600000C0000F073F92800FFF7E1FFAC60002008
:1056100028603A4800E0006801680029FBD1056075
:1056200000F074F931BD70B504000D00160000F0F3
:105630005DF92000FFF7CBFF6560A66000202060C9
:105640002D4800E000680168002906D0016849681B
:10565000491B0129F6DB01682160046000F056F95E
:1056600070BD10B5002400F041F9234840680028BF
:1056700005D02148446820681F4948600FE01E4853
:10568000006800280BD01C480068406800F08EF9C4
:10569000002804D018480468206817490860A068EA
:1056A000002800D1002400F031F9002C02D02000A5
:1056B000A1688847002C03D00F480068002801D05B
:1056C000012000E0002010BD00B50B480068002854
:1056D0000ED0094800684068C117FA2292000023E2
:1056E00000F03CFA80221202002300F050FA00E0A1
:1056F000034800BD00000000CC110020D0110020A4
:105700003C0F000080B500F09BF901BD80B500F0B2
:10571000CBF901BD80B5C7480068002802D0002041
:10572000FFF764FE01BD80B5002280214901C24817
:1057300001F07AFA00220421A020C00501F074FAD9
:1057400000221021A020C00501F06EFA00224021A5
:10575000A020C00501F0FCF901224021A020C005D5
:1057600001F032FB00228021A020C00501F0F0F9F9
:1057700001228021A020C00501F026FB002201218A
:10578000AD4801F0E5F901220121AB4801F01CFB15
:10579000AA4A4021A020C00501F04BF8A74A802169
:1057A000A020C00501F045F8A44A0121A24801F05B
:1057B00040F801BD80B501F032FC01BD00B585B0F7
:1057C000B548006804210143B3480160B34800684C
:1057D00004210143B1480160B148C7490860B1489C
:1057E000C549C8600020C44948600020C24908611A
:1057F0000020C1498860C04801F054FC002801D055
:1058000000F0FDF880208001009000200190002031
:105810000290002003906946B74801F07AFCB7492E
:10582000B54801F087FDB44801F065FC002801D0BF
:1058300000F0E5F800220021142001F006FE1420FB
:1058400001F008FE05B000BD10B50C210022BE4CD1
:105850002000FDF7DBFB00F049F8FFF764FFFFF7DE
:10586000A9FFFFF7ABFF00F04BF900F04FF810BDB8
:1058700080B50200D2B280214901B44801F030FA6B
:1058800001BD10B50400E4B2012C04D0E4B2002C38
:1058900001D000F0B4F8E4B2E243D2B21021A0206B
:1058A000C00501F01DFA2200D2B20421A020C005DB
:1058B00001F016FA10BD80B5C0B2002802D0C0B207
:1058C000012807D10200D2B22021A020C00501F09A
:1058D000ABF905E000222021A020C00501F038F935
:1058E00001BD80B5C0B201F0C5FB02BD00B5964850
:1058F0004068002803D1EFF310809349086072B626
:1059000091484068401C9049486000BD00B58E48F1
:105910004068012804DB8C484068401E8A49486082
:1059200089484068002806D187480078C00701D51B
:1059300072B600E062B600BD30BF704784480068B0
:1059400080B2704780B282490860704738B5FFF76F
:10595000CDFF7D488468FFF7F1FF050066480068C9
:105960000069C00703D5FFF7E9FF0500641CFFF7D6
:10597000CDFF2004ADB2284332BD10B50400FFF7BF
:10598000E5FF201A012801DA002006E001000914D1
:10599000002901D0434800E080B210BD10B50400DA
:1059A0002000FFF7EAFF0028FAD110BD10B504214E
:1059B000C943514A12681161FFF7DFFF040020005C
:1059C00080B2052809DA4C480068C0680421884381
:1059D00049490968C860012010E0FFF7AFFF80B2B5
:1059E000A4B2001944490968886343480068C06844
:1059F0000421014340480068C160002010BD80B50B
:105A0000FFF774FFFFF798FFFEE700B53A4800681C
:105A10000069C00704D54C488068401C4A4988602A
:105A20003548006800690520C043334909680861AA
:105A300000BD0000A4070020000400501557000816
:105A400080B5FDF7D3F8022807D1FAF7D1FC00287A
:105A500003D0002001F01AFD02E0012001F016FD44
:105A60000821A020C00501F0C9F88021890139482A
:105A700001F0C4F80121A020C00501F0BFF8802189
:105A80004900324801F0BAF83348006801218843E0
:105A90003149086001BD000034100240441002404A
:105AA00000080140FFFF000038B50400FFF71EFFAB
:105AB000FFF74CFF05002000002180221202002386
:105AC00000F04CF8FA229200002300F060F8020087
:105AD000280080180100090C1B4A916080B2FFF772
